{
	"data": {
		"bytecode": {
			"linkReferences": {},
			"object": "60a060405234801561000f575f80fd5b506040516122053803806122058339818101604052810190610031919061072e565b80808073ffffffffffffffffffffffffffffffffffffffff1660808173ffffffffffffffffffffffffffffffffffffffff1681525050506100773061008c60201b60201c565b506100866100ac60201b60201c565b50610909565b6100a98161009e6101ec60201b60201c565b61027660201b60201c565b50565b5f6100bb61060560201b60201c565b905060015f60109054906101000a90046cffffffffffffffffffffffffff166100e4919061079e565b6cffffffffffffffffffffffffff16815f60109054906101000a90046cffffffffffffffffffffffffff166cffffffffffffffffffffffffff165f8054906101000a90046fffffffffffffffffffffffffffffffff1661014491906107f9565b61014e9190610835565b61015891906108a5565b5f806101000a8154816fffffffffffffffffffffffffffffffff02191690836fffffffffffffffffffffffffffffffff1602179055505f601081819054906101000a90046cffffffffffffffffffffffffff16809291906101b8906108d5565b91906101000a8154816cffffffffffffffffffffffffff02191690836cffffffffffffffffffffffffff1602179055505050565b6101f4610642565b604051806101c001604052806001151581526020015f151581526020015f151581526020015f151581526020015f151581526020015f151581526020016001151581526020016001151581526020015f151581526020015f151581526020015f151581526020015f151581526020015f151581526020015f1515815250905090565b6102a16120008373ffffffffffffffffffffffffffffffffffffffff1661061160201b90919060201c565b1515815f015115151415806102e857506102dc6110008373ffffffffffffffffffffffffffffffffffffffff1661061160201b90919060201c565b15158160200151151514155b8061032557506103196108008373ffffffffffffffffffffffffffffffffffffffff1661061160201b90919060201c565b15158160400151151514155b8061036257506103566104008373ffffffffffffffffffffffffffffffffffffffff1661061160201b90919060201c565b15158160600151151514155b8061039f57506103936102008373ffffffffffffffffffffffffffffffffffffffff1661061160201b90919060201c565b15158160800151151514155b806103dc57506103d06101008373ffffffffffffffffffffffffffffffffffffffff1661061160201b90919060201c565b15158160a00151151514155b80610418575061040c60808373ffffffffffffffffffffffffffffffffffffffff1661061160201b90919060201c565b15158160c00151151514155b80610454575061044860408373ffffffffffffffffffffffffffffffffffffffff1661061160201b90919060201c565b15158160e00151151514155b80610491575061048460208373ffffffffffffffffffffffffffffffffffffffff1661061160201b90919060201c565b1515816101000151151514155b806104ce57506104c160108373ffffffffffffffffffffffffffffffffffffffff1661061160201b90919060201c565b1515816101200151151514155b8061050b57506104fe60088373ffffffffffffffffffffffffffffffffffffffff1661061160201b90919060201c565b1515816101400151151514155b80610548575061053b60048373ffffffffffffffffffffffffffffffffffffffff1661061160201b90919060201c565b1515816101600151151514155b80610585575061057860028373ffffffffffffffffffffffffffffffffffffffff1661061160201b90919060201c565b1515816101800151151514155b806105c257506105b560018373ffffffffffffffffffffffffffffffffffffffff1661061160201b90919060201c565b1515816101a00151151514155b15610601576106008263e65af6a060e01b7bffffffffffffffffffffffffffffffffffffffffffffffffffffffff191661063660201b90919060201c565b5b5050565b5f803a90508091505090565b5f8082841673ffffffffffffffffffffffffffffffffffffffff161415905092915050565b815f528060045260245ffd5b604051806101c001604052805f151581526020015f151581526020015f151581526020015f151581526020015f151581526020015f151581526020015f151581526020015f151581526020015f151581526020015f151581526020015f151581526020015f151581526020015f151581526020015f151581525090565b5f80fd5b5f73ffffffffffffffffffffffffffffffffffffffff82169050919050565b5f6106ec826106c3565b9050919050565b5f6106fd826106e2565b9050919050565b61070d816106f3565b8114610717575f80fd5b50565b5f8151905061072881610704565b92915050565b5f60208284031215610743576107426106bf565b5b5f6107508482850161071a565b91505092915050565b5f6cffffffffffffffffffffffffff82169050919050565b7f4e487b71000000000000000000000000000000000000000000000000000000005f52601160045260245ffd5b5f6107a882610759565b91506107b383610759565b925082820190506cffffffffffffffffffffffffff8111156107d8576107d7610771565b5b92915050565b5f6fffffffffffffffffffffffffffffffff82169050919050565b5f610803826107de565b915061080e836107de565b925082820261081c816107de565b915080821461082e5761082d610771565b5b5092915050565b5f61083f826107de565b915061084a836107de565b925082820190506fffffffffffffffffffffffffffffffff81111561087257610871610771565b5b92915050565b7f4e487b71000000000000000000000000000000000000000000000000000000005f52601260045260245ffd5b5f6108af826107de565b91506108ba836107de565b9250826108ca576108c9610878565b5b828204905092915050565b5f6108df82610759565b91506cffffffffffffffffffffffffff82036108fe576108fd610771565b5b600182019050919050565b6080516118d661092f5f395f81816104ba015281816104e101526105fc01526118d65ff3fe608060405234801561000f575f80fd5b5060043610610109575f3560e01c80638db2b652116100a0578063b47b2fb11161006f578063b47b2fb114610309578063b6a8b0fa1461033a578063c4e833ce1461036a578063cd2c70e814610388578063e1b4af69146103a657610109565b80638db2b6521461025a57806391dd73461461028b5780639a161daa146102bb578063a910f80f146102d957610109565b8063455259cb116100dc578063455259cb146101bb578063481c6a75146101d9578063575e24b4146101f75780635a2a81001461022957610109565b806321d0ee701461010d578063259982e51461013d5780633440d8201461016d5780633d18651e1461019d575b5f80fd5b61012760048036038101906101229190610cad565b6103d6565b6040516101349190610d6d565b60405180910390f35b61015760048036038101906101529190610cad565b610409565b6040516101649190610d6d565b60405180910390f35b61018760048036038101906101829190610db0565b61043c565b6040516101949190610d6d565b60405180910390f35b6101a56104a6565b6040516101b29190610e52565b60405180910390f35b6101c36104ac565b6040516101d09190610e95565b60405180910390f35b6101e16104b8565b6040516101ee9190610f09565b60405180910390f35b610211600480360381019061020c9190610f40565b6104dc565b60405161022093929190610fff565b60405180910390f35b610243600480360381019061023e919061105e565b610590565b604051610251929190611106565b60405180910390f35b610274600480360381019061026f919061105e565b6105c4565b604051610282929190611106565b60405180910390f35b6102a560048036038101906102a0919061112d565b6105f8565b6040516102b291906111e8565b60405180910390f35b6102c3610691565b6040516102d09190610e95565b60405180910390f35b6102f360048036038101906102ee919061123e565b6106b0565b6040516103009190610d6d565b60405180910390f35b610323600480360381019061031e91906112d6565b6106e3565b60405161033192919061138a565b60405180910390f35b610354600480360381019061034f91906113e4565b610705565b6040516103619190610d6d565b60405180910390f35b610372610738565b60405161037f91906115b4565b60405180910390f35b6103906107c2565b60405161039d91906115f5565b60405180910390f35b6103c060048036038101906103bb91906113e4565b6107e0565b6040516103cd9190610d6d565b60405180910390f35b5f6040517f0a85dc2900000000000000000000000000000000000000000000000000000000815260040160405180910390fd5b5f6040517f0a85dc2900000000000000000000000000000000000000000000000000000000815260040160405180910390fd5b5f61045d8560400160208101906104539190611638565b62ffffff16610813565b610493576040517fad9eb4f800000000000000000000000000000000000000000000000000000000815260040160405180910390fd5b633440d82060e01b905095945050505050565b61138881565b5f803a90508091505090565b7f000000000000000000000000000000000000000000000000000000000000000081565b5f805f7f000000000000000000000000000000000000000000000000000000000000000073ffffffffffffffffffffffffffffffffffffffff163373ffffffffffffffffffffffffffffffffffffffff1614610564576040517fc0fc8a8a00000000000000000000000000000000000000000000000000000000815260040160405180910390fd5b5f61056d61082b565b905063575e24b460e01b5f62400000831793509350935050955095509592505050565b5f806040517f0a85dc2900000000000000000000000000000000000000000000000000000000815260040160405180910390fd5b5f806040517f0a85dc2900000000000000000000000000000000000000000000000000000000815260040160405180910390fd5b60607f000000000000000000000000000000000000000000000000000000000000000073ffffffffffffffffffffffffffffffffffffffff163373ffffffffffffffffffffffffffffffffffffffff161461067f576040517fc0fc8a8a00000000000000000000000000000000000000000000000000000000815260040160405180910390fd5b610689838361092d565b905092915050565b5f8054906101000a90046fffffffffffffffffffffffffffffffff1681565b5f6040517f0a85dc2900000000000000000000000000000000000000000000000000000000815260040160405180910390fd5b5f806106ed6109f3565b63b47b2fb160e01b5f91509150965096945050505050565b5f6040517f0a85dc2900000000000000000000000000000000000000000000000000000000815260040160405180910390fd5b610740610b2d565b604051806101c001604052806001151581526020015f151581526020015f151581526020015f151581526020015f151581526020015f151581526020016001151581526020016001151581526020015f151581526020015f151581526020015f151581526020015f151581526020015f151581526020015f1515815250905090565b5f60109054906101000a90046cffffffffffffffffffffffffff1681565b5f6040517f0a85dc2900000000000000000000000000000000000000000000000000000000815260040160405180910390fd5b5f6280000062ffffff168262ffffff16149050919050565b5f806108356104ac565b9050600a600b5f8054906101000a90046fffffffffffffffffffffffffffffffff166108619190611690565b61086b91906116f9565b6fffffffffffffffffffffffffffffffff16816fffffffffffffffffffffffffffffffff1611156108ad5760026113886108a59190611729565b91505061092a565b600a60095f8054906101000a90046fffffffffffffffffffffffffffffffff166108d79190611690565b6108e191906116f9565b6fffffffffffffffffffffffffffffffff16816fffffffffffffffffffffffffffffffff16101561092357600261138861091b9190611759565b91505061092a565b6113889150505b90565b60605f803073ffffffffffffffffffffffffffffffffffffffff1685856040516109589291906117d1565b5f604051808303815f865af19150503d805f8114610991576040519150601f19603f3d011682016040523d82523d5f602084013e610996565b606091505b509150915081156109ab5780925050506109ed565b5f8151036109e5576040517fa40afa3800000000000000000000000000000000000000000000000000000000815260040160405180910390fd5b805160208201fd5b92915050565b5f6109fc6104ac565b905060015f60109054906101000a90046cffffffffffffffffffffffffff16610a2591906117e9565b6cffffffffffffffffffffffffff16815f60109054906101000a90046cffffffffffffffffffffffffff166cffffffffffffffffffffffffff165f8054906101000a90046fffffffffffffffffffffffffffffffff16610a859190611690565b610a8f9190611829565b610a9991906116f9565b5f806101000a8154816fffffffffffffffffffffffffffffffff02191690836fffffffffffffffffffffffffffffffff1602179055505f601081819054906101000a90046cffffffffffffffffffffffffff1680929190610af99061186c565b91906101000a8154816cffffffffffffffffffffffffff02191690836cffffffffffffffffffffffffff1602179055505050565b604051806101c001604052805f151581526020015f151581526020015f151581526020015f151581526020015f151581526020015f151581526020015f151581526020015f151581526020015f151581526020015f151581526020015f151581526020015f151581526020015f151581526020015f151581525090565b5f80fd5b5f80fd5b5f73ffffffffffffffffffffffffffffffffffffffff82169050919050565b5f610bdb82610bb2565b9050919050565b610beb81610bd1565b8114610bf5575f80fd5b50565b5f81359050610c0681610be2565b92915050565b5f80fd5b5f60a08284031215610c2557610c24610c0c565b5b81905092915050565b5f60808284031215610c4357610c42610c0c565b5b81905092915050565b5f80fd5b5f80fd5b5f80fd5b5f8083601f840112610c6d57610c6c610c4c565b5b8235905067ffffffffffffffff811115610c8a57610c89610c50565b5b602083019150836001820283011115610ca657610ca5610c54565b5b9250929050565b5f805f805f6101608688031215610cc757610cc6610baa565b5b5f610cd488828901610bf8565b9550506020610ce588828901610c10565b94505060c0610cf688828901610c2e565b93505061014086013567ffffffffffffffff811115610d1857610d17610bae565b5b610d2488828901610c58565b92509250509295509295909350565b5f7fffffffff0000000000000000000000000000000000000000000000000000000082169050919050565b610d6781610d33565b82525050565b5f602082019050610d805f830184610d5e565b92915050565b610d8f81610bb2565b8114610d99575f80fd5b50565b5f81359050610daa81610d86565b92915050565b5f805f805f6101008688031215610dca57610dc9610baa565b5b5f610dd788828901610bf8565b9550506020610de888828901610c10565b94505060c0610df988828901610d9c565b93505060e086013567ffffffffffffffff811115610e1a57610e19610bae565b5b610e2688828901610c58565b92509250509295509295909350565b5f62ffffff82169050919050565b610e4c81610e35565b82525050565b5f602082019050610e655f830184610e43565b92915050565b5f6fffffffffffffffffffffffffffffffff82169050919050565b610e8f81610e6b565b82525050565b5f602082019050610ea85f830184610e86565b92915050565b5f819050919050565b5f610ed1610ecc610ec784610bb2565b610eae565b610bb2565b9050919050565b5f610ee282610eb7565b9050919050565b5f610ef382610ed8565b9050919050565b610f0381610ee9565b82525050565b5f602082019050610f1c5f830184610efa565b92915050565b5f60608284031215610f3757610f36610c0c565b5b81905092915050565b5f805f805f6101408688031215610f5a57610f59610baa565b5b5f610f6788828901610bf8565b9550506020610f7888828901610c10565b94505060c0610f8988828901610f22565b93505061012086013567ffffffffffffffff811115610fab57610faa610bae565b5b610fb788828901610c58565b92509250509295509295909350565b5f819050919050565b5f610fe9610fe4610fdf84610fc6565b610eae565b610fc6565b9050919050565b610ff981610fcf565b82525050565b5f6060820190506110125f830186610d5e565b61101f6020830185610ff0565b61102c6040830184610e43565b949350505050565b61103d81610fc6565b8114611047575f80fd5b50565b5f8135905061105881611034565b92915050565b5f805f805f80610180878903121561107957611078610baa565b5b5f61108689828a01610bf8565b965050602061109789828a01610c10565b95505060c06110a889828a01610c2e565b9450506101406110ba89828a0161104a565b93505061016087013567ffffffffffffffff8111156110dc576110db610bae565b5b6110e889828a01610c58565b92509250509295509295509295565b61110081610fcf565b82525050565b5f6040820190506111195f830185610d5e565b61112660208301846110f7565b9392505050565b5f806020838503121561114357611142610baa565b5b5f83013567ffffffffffffffff8111156111605761115f610bae565b5b61116c85828601610c58565b92509250509250929050565b5f81519050919050565b5f82825260208201905092915050565b8281835e5f83830152505050565b5f601f19601f8301169050919050565b5f6111ba82611178565b6111c48185611182565b93506111d4818560208601611192565b6111dd816111a0565b840191505092915050565b5f6020820190508181035f83015261120081846111b0565b905092915050565b5f8160020b9050919050565b61121d81611208565b8114611227575f80fd5b50565b5f8135905061123881611214565b92915050565b5f805f805f80610120878903121561125957611258610baa565b5b5f61126689828a01610bf8565b965050602061127789828a01610c10565b95505060c061128889828a01610d9c565b94505060e061129989828a0161122a565b93505061010087013567ffffffffffffffff8111156112bb576112ba610bae565b5b6112c789828a01610c58565b92509250509295509295509295565b5f805f805f8061016087890312156112f1576112f0610baa565b5b5f6112fe89828a01610bf8565b965050602061130f89828a01610c10565b95505060c061132089828a01610f22565b94505061012061133289828a0161104a565b93505061014087013567ffffffffffffffff81111561135457611353610bae565b5b61136089828a01610c58565b92509250509295509295509295565b5f81600f0b9050919050565b6113848161136f565b82525050565b5f60408201905061139d5f830185610d5e565b6113aa602083018461137b565b9392505050565b5f819050919050565b6113c3816113b1565b81146113cd575f80fd5b50565b5f813590506113de816113ba565b92915050565b5f805f805f8061012087890312156113ff576113fe610baa565b5b5f61140c89828a01610bf8565b965050602061141d89828a01610c10565b95505060c061142e89828a016113d0565b94505060e061143f89828a016113d0565b93505061010087013567ffffffffffffffff81111561146157611460610bae565b5b61146d89828a01610c58565b92509250509295509295509295565b5f8115159050919050565b6114908161147c565b82525050565b6101c082015f8201516114ab5f850182611487565b5060208201516114be6020850182611487565b5060408201516114d16040850182611487565b5060608201516114e46060850182611487565b5060808201516114f76080850182611487565b5060a082015161150a60a0850182611487565b5060c082015161151d60c0850182611487565b5060e082015161153060e0850182611487565b50610100820151611545610100850182611487565b5061012082015161155a610120850182611487565b5061014082015161156f610140850182611487565b50610160820151611584610160850182611487565b50610180820151611599610180850182611487565b506101a08201516115ae6101a0850182611487565b50505050565b5f6101c0820190506115c85f830184611496565b92915050565b5f6cffffffffffffffffffffffffff82169050919050565b6115ef816115ce565b82525050565b5f6020820190506116085f8301846115e6565b92915050565b61161781610e35565b8114611621575f80fd5b50565b5f813590506116328161160e565b92915050565b5f6020828403121561164d5761164c610baa565b5b5f61165a84828501611624565b91505092915050565b7f4e487b71000000000000000000000000000000000000000000000000000000005f52601160045260245ffd5b5f61169a82610e6b565b91506116a583610e6b565b92508282026116b381610e6b565b91508082146116c5576116c4611663565b5b5092915050565b7f4e487b71000000000000000000000000000000000000000000000000000000005f52601260045260245ffd5b5f61170382610e6b565b915061170e83610e6b565b92508261171e5761171d6116cc565b5b828204905092915050565b5f61173382610e35565b915061173e83610e35565b92508261174e5761174d6116cc565b5b828204905092915050565b5f61176382610e35565b915061176e83610e35565b925082820261177c81610e35565b915080821461178e5761178d611663565b5b5092915050565b5f81905092915050565b828183375f83830152505050565b5f6117b88385611795565b93506117c583858461179f565b82840190509392505050565b5f6117dd8284866117ad565b91508190509392505050565b5f6117f3826115ce565b91506117fe836115ce565b925082820190506cffffffffffffffffffffffffff81111561182357611822611663565b5b92915050565b5f61183382610e6b565b915061183e83610e6b565b925082820190506fffffffffffffffffffffffffffffffff81111561186657611865611663565b5b92915050565b5f611876826115ce565b91506cffffffffffffffffffffffffff820361189557611894611663565b5b60018201905091905056fea2646970667358221220e77552e0aece215f091a5f10d3e9e24ab6b28a67f1a869d30626cf1e259a0e4664736f6c634300081a0033",
			"opcodes": "PUSH1 0xA0 PUSH1 0x40 MSTORE CALLVALUE DUP1 ISZERO PUSH2 0xF JUMPI PUSH0 DUP1 REVERT JUMPDEST POP PUSH1 0x40 MLOAD PUSH2 0x2205 CODESIZE SUB DUP1 PUSH2 0x2205 DUP4 CODECOPY DUP2 DUP2 ADD PUSH1 0x40 MSTORE DUP2 ADD SWAP1 PUSH2 0x31 SWAP2 SWAP1 PUSH2 0x72E JUMP JUMPDEST DUP1 DUP1 DUP1 PUSH20 0xFFFFFFFFFFFFFFFFFFFFFFFFFFFFFFFFFFFFFFFF AND PUSH1 0x80 DUP2 PUSH20 0xFFFFFFFFFFFFFFFFFFFFFFFFFFFFFFFFFFFFFFFF AND DUP2 MSTORE POP POP POP PUSH2 0x77 ADDRESS PUSH2 0x8C PUSH1 0x20 SHL PUSH1 0x20 SHR JUMP JUMPDEST POP PUSH2 0x86 PUSH2 0xAC PUSH1 0x20 SHL PUSH1 0x20 SHR JUMP JUMPDEST POP PUSH2 0x909 JUMP JUMPDEST PUSH2 0xA9 DUP2 PUSH2 0x9E PUSH2 0x1EC PUSH1 0x20 SHL PUSH1 0x20 SHR JUMP JUMPDEST PUSH2 0x276 PUSH1 0x20 SHL PUSH1 0x20 SHR JUMP JUMPDEST POP JUMP JUMPDEST PUSH0 PUSH2 0xBB PUSH2 0x605 PUSH1 0x20 SHL PUSH1 0x20 SHR JUMP JUMPDEST SWAP1 POP PUSH1 0x1 PUSH0 PUSH1 0x10 SWAP1 SLOAD SWAP1 PUSH2 0x100 EXP SWAP1 DIV PUSH13 0xFFFFFFFFFFFFFFFFFFFFFFFFFF AND PUSH2 0xE4 SWAP2 SWAP1 PUSH2 0x79E JUMP JUMPDEST PUSH13 0xFFFFFFFFFFFFFFFFFFFFFFFFFF AND DUP2 PUSH0 PUSH1 0x10 SWAP1 SLOAD SWAP1 PUSH2 0x100 EXP SWAP1 DIV PUSH13 0xFFFFFFFFFFFFFFFFFFFFFFFFFF AND PUSH13 0xFFFFFFFFFFFFFFFFFFFFFFFFFF AND PUSH0 DUP1 SLOAD SWAP1 PUSH2 0x100 EXP SWAP1 DIV PUSH16 0xFFFFFFFFFFFFFFFFFFFFFFFFFFFFFFFF AND PUSH2 0x144 SWAP2 SWAP1 PUSH2 0x7F9 JUMP JUMPDEST PUSH2 0x14E SWAP2 SWAP1 PUSH2 0x835 JUMP JUMPDEST PUSH2 0x158 SWAP2 SWAP1 PUSH2 0x8A5 JUMP JUMPDEST PUSH0 DUP1 PUSH2 0x100 EXP DUP2 SLOAD DUP2 PUSH16 0xFFFFFFFFFFFFFFFFFFFFFFFFFFFFFFFF MUL NOT AND SWAP1 DUP4 PUSH16 0xFFFFFFFFFFFFFFFFFFFFFFFFFFFFFFFF AND MUL OR SWAP1 SSTORE POP PUSH0 PUSH1 0x10 DUP2 DUP2 SWAP1 SLOAD SWAP1 PUSH2 0x100 EXP SWAP1 DIV PUSH13 0xFFFFFFFFFFFFFFFFFFFFFFFFFF AND DUP1 SWAP3 SWAP2 SWAP1 PUSH2 0x1B8 SWAP1 PUSH2 0x8D5 JUMP JUMPDEST SWAP2 SWAP1 PUSH2 0x100 EXP DUP2 SLOAD DUP2 PUSH13 0xFFFFFFFFFFFFFFFFFFFFFFFFFF MUL NOT AND SWAP1 DUP4 PUSH13 0xFFFFFFFFFFFFFFFFFFFFFFFFFF AND MUL OR SWAP1 SSTORE POP POP POP JUMP JUMPDEST PUSH2 0x1F4 PUSH2 0x642 JUMP JUMPDEST PUSH1 0x40 MLOAD DUP1 PUSH2 0x1C0 ADD PUSH1 0x40 MSTORE DUP1 PUSH1 0x1 ISZERO ISZERO DUP2 MSTORE PUSH1 0x20 ADD PUSH0 ISZERO ISZERO DUP2 MSTORE PUSH1 0x20 ADD PUSH0 ISZERO ISZERO DUP2 MSTORE PUSH1 0x20 ADD PUSH0 ISZERO ISZERO DUP2 MSTORE PUSH1 0x20 ADD PUSH0 ISZERO ISZERO DUP2 MSTORE PUSH1 0x20 ADD PUSH0 ISZERO ISZERO DUP2 MSTORE PUSH1 0x20 ADD PUSH1 0x1 ISZERO ISZERO DUP2 MSTORE PUSH1 0x20 ADD PUSH1 0x1 ISZERO ISZERO DUP2 MSTORE PUSH1 0x20 ADD PUSH0 ISZERO ISZERO DUP2 MSTORE PUSH1 0x20 ADD PUSH0 ISZERO ISZERO DUP2 MSTORE PUSH1 0x20 ADD PUSH0 ISZERO ISZERO DUP2 MSTORE PUSH1 0x20 ADD PUSH0 ISZERO ISZERO DUP2 MSTORE PUSH1 0x20 ADD PUSH0 ISZERO ISZERO DUP2 MSTORE PUSH1 0x20 ADD PUSH0 ISZERO ISZERO DUP2 MSTORE POP SWAP1 POP SWAP1 JUMP JUMPDEST PUSH2 0x2A1 PUSH2 0x2000 DUP4 PUSH20 0xFFFFFFFFFFFFFFFFFFFFFFFFFFFFFFFFFFFFFFFF AND PUSH2 0x611 PUSH1 0x20 SHL SWAP1 SWAP2 SWAP1 PUSH1 0x20 SHR JUMP JUMPDEST ISZERO ISZERO DUP2 PUSH0 ADD MLOAD ISZERO ISZERO EQ ISZERO DUP1 PUSH2 0x2E8 JUMPI POP PUSH2 0x2DC PUSH2 0x1000 DUP4 PUSH20 0xFFFFFFFFFFFFFFFFFFFFFFFFFFFFFFFFFFFFFFFF AND PUSH2 0x611 PUSH1 0x20 SHL SWAP1 SWAP2 SWAP1 PUSH1 0x20 SHR JUMP JUMPDEST ISZERO ISZERO DUP2 PUSH1 0x20 ADD MLOAD ISZERO ISZERO EQ ISZERO JUMPDEST DUP1 PUSH2 0x325 JUMPI POP PUSH2 0x319 PUSH2 0x800 DUP4 PUSH20 0xFFFFFFFFFFFFFFFFFFFFFFFFFFFFFFFFFFFFFFFF AND PUSH2 0x611 PUSH1 0x20 SHL SWAP1 SWAP2 SWAP1 PUSH1 0x20 SHR JUMP JUMPDEST ISZERO ISZERO DUP2 PUSH1 0x40 ADD MLOAD ISZERO ISZERO EQ ISZERO JUMPDEST DUP1 PUSH2 0x362 JUMPI POP PUSH2 0x356 PUSH2 0x400 DUP4 PUSH20 0xFFFFFFFFFFFFFFFFFFFFFFFFFFFFFFFFFFFFFFFF AND PUSH2 0x611 PUSH1 0x20 SHL SWAP1 SWAP2 SWAP1 PUSH1 0x20 SHR JUMP JUMPDEST ISZERO ISZERO DUP2 PUSH1 0x60 ADD MLOAD ISZERO ISZERO EQ ISZERO JUMPDEST DUP1 PUSH2 0x39F JUMPI POP PUSH2 0x393 PUSH2 0x200 DUP4 PUSH20 0xFFFFFFFFFFFFFFFFFFFFFFFFFFFFFFFFFFFFFFFF AND PUSH2 0x611 PUSH1 0x20 SHL SWAP1 SWAP2 SWAP1 PUSH1 0x20 SHR JUMP JUMPDEST ISZERO ISZERO DUP2 PUSH1 0x80 ADD MLOAD ISZERO ISZERO EQ ISZERO JUMPDEST DUP1 PUSH2 0x3DC JUMPI POP PUSH2 0x3D0 PUSH2 0x100 DUP4 PUSH20 0xFFFFFFFFFFFFFFFFFFFFFFFFFFFFFFFFFFFFFFFF AND PUSH2 0x611 PUSH1 0x20 SHL SWAP1 SWAP2 SWAP1 PUSH1 0x20 SHR JUMP JUMPDEST ISZERO ISZERO DUP2 PUSH1 0xA0 ADD MLOAD ISZERO ISZERO EQ ISZERO JUMPDEST DUP1 PUSH2 0x418 JUMPI POP PUSH2 0x40C PUSH1 0x80 DUP4 PUSH20 0xFFFFFFFFFFFFFFFFFFFFFFFFFFFFFFFFFFFFFFFF AND PUSH2 0x611 PUSH1 0x20 SHL SWAP1 SWAP2 SWAP1 PUSH1 0x20 SHR JUMP JUMPDEST ISZERO ISZERO DUP2 PUSH1 0xC0 ADD MLOAD ISZERO ISZERO EQ ISZERO JUMPDEST DUP1 PUSH2 0x454 JUMPI POP PUSH2 0x448 PUSH1 0x40 DUP4 PUSH20 0xFFFFFFFFFFFFFFFFFFFFFFFFFFFFFFFFFFFFFFFF AND PUSH2 0x611 PUSH1 0x20 SHL SWAP1 SWAP2 SWAP1 PUSH1 0x20 SHR JUMP JUMPDEST ISZERO ISZERO DUP2 PUSH1 0xE0 ADD MLOAD ISZERO ISZERO EQ ISZERO JUMPDEST DUP1 PUSH2 0x491 JUMPI POP PUSH2 0x484 PUSH1 0x20 DUP4 PUSH20 0xFFFFFFFFFFFFFFFFFFFFFFFFFFFFFFFFFFFFFFFF AND PUSH2 0x611 PUSH1 0x20 SHL SWAP1 SWAP2 SWAP1 PUSH1 0x20 SHR JUMP JUMPDEST ISZERO ISZERO DUP2 PUSH2 0x100 ADD MLOAD ISZERO ISZERO EQ ISZERO JUMPDEST DUP1 PUSH2 0x4CE JUMPI POP PUSH2 0x4C1 PUSH1 0x10 DUP4 PUSH20 0xFFFFFFFFFFFFFFFFFFFFFFFFFFFFFFFFFFFFFFFF AND PUSH2 0x611 PUSH1 0x20 SHL SWAP1 SWAP2 SWAP1 PUSH1 0x20 SHR JUMP JUMPDEST ISZERO ISZERO DUP2 PUSH2 0x120 ADD MLOAD ISZERO ISZERO EQ ISZERO JUMPDEST DUP1 PUSH2 0x50B JUMPI POP PUSH2 0x4FE PUSH1 0x8 DUP4 PUSH20 0xFFFFFFFFFFFFFFFFFFFFFFFFFFFFFFFFFFFFFFFF AND PUSH2 0x611 PUSH1 0x20 SHL SWAP1 SWAP2 SWAP1 PUSH1 0x20 SHR JUMP JUMPDEST ISZERO ISZERO DUP2 PUSH2 0x140 ADD MLOAD ISZERO ISZERO EQ ISZERO JUMPDEST DUP1 PUSH2 0x548 JUMPI POP PUSH2 0x53B PUSH1 0x4 DUP4 PUSH20 0xFFFFFFFFFFFFFFFFFFFFFFFFFFFFFFFFFFFFFFFF AND PUSH2 0x611 PUSH1 0x20 SHL SWAP1 SWAP2 SWAP1 PUSH1 0x20 SHR JUMP JUMPDEST ISZERO ISZERO DUP2 PUSH2 0x160 ADD MLOAD ISZERO ISZERO EQ ISZERO JUMPDEST DUP1 PUSH2 0x585 JUMPI POP PUSH2 0x578 PUSH1 0x2 DUP4 PUSH20 0xFFFFFFFFFFFFFFFFFFFFFFFFFFFFFFFFFFFFFFFF AND PUSH2 0x611 PUSH1 0x20 SHL SWAP1 SWAP2 SWAP1 PUSH1 0x20 SHR JUMP JUMPDEST ISZERO ISZERO DUP2 PUSH2 0x180 ADD MLOAD ISZERO ISZERO EQ ISZERO JUMPDEST DUP1 PUSH2 0x5C2 JUMPI POP PUSH2 0x5B5 PUSH1 0x1 DUP4 PUSH20 0xFFFFFFFFFFFFFFFFFFFFFFFFFFFFFFFFFFFFFFFF AND PUSH2 0x611 PUSH1 0x20 SHL SWAP1 SWAP2 SWAP1 PUSH1 0x20 SHR JUMP JUMPDEST ISZERO ISZERO DUP2 PUSH2 0x1A0 ADD MLOAD ISZERO ISZERO EQ ISZERO JUMPDEST ISZERO PUSH2 0x601 JUMPI PUSH2 0x600 DUP3 PUSH4 0xE65AF6A0 PUSH1 0xE0 SHL PUSH28 0xFFFFFFFFFFFFFFFFFFFFFFFFFFFFFFFFFFFFFFFFFFFFFFFFFFFFFFFF NOT AND PUSH2 0x636 PUSH1 0x20 SHL SWAP1 SWAP2 SWAP1 PUSH1 0x20 SHR JUMP JUMPDEST JUMPDEST POP POP JUMP JUMPDEST PUSH0 DUP1 GASPRICE SWAP1 POP DUP1 SWAP2 POP POP SWAP1 JUMP JUMPDEST PUSH0 DUP1 DUP3 DUP5 AND PUSH20 0xFFFFFFFFFFFFFFFFFFFFFFFFFFFFFFFFFFFFFFFF AND EQ ISZERO SWAP1 POP SWAP3 SWAP2 POP POP JUMP JUMPDEST DUP2 PUSH0 MSTORE DUP1 PUSH1 0x4 MSTORE PUSH1 0x24 PUSH0 REVERT JUMPDEST PUSH1 0x40 MLOAD DUP1 PUSH2 0x1C0 ADD PUSH1 0x40 MSTORE DUP1 PUSH0 ISZERO ISZERO DUP2 MSTORE PUSH1 0x20 ADD PUSH0 ISZERO ISZERO DUP2 MSTORE PUSH1 0x20 ADD PUSH0 ISZERO ISZERO DUP2 MSTORE PUSH1 0x20 ADD PUSH0 ISZERO ISZERO DUP2 MSTORE PUSH1 0x20 ADD PUSH0 ISZERO ISZERO DUP2 MSTORE PUSH1 0x20 ADD PUSH0 ISZERO ISZERO DUP2 MSTORE PUSH1 0x20 ADD PUSH0 ISZERO ISZERO DUP2 MSTORE PUSH1 0x20 ADD PUSH0 ISZERO ISZERO DUP2 MSTORE PUSH1 0x20 ADD PUSH0 ISZERO ISZERO DUP2 MSTORE PUSH1 0x20 ADD PUSH0 ISZERO ISZERO DUP2 MSTORE PUSH1 0x20 ADD PUSH0 ISZERO ISZERO DUP2 MSTORE PUSH1 0x20 ADD PUSH0 ISZERO ISZERO DUP2 MSTORE PUSH1 0x20 ADD PUSH0 ISZERO ISZERO DUP2 MSTORE PUSH1 0x20 ADD PUSH0 ISZERO ISZERO DUP2 MSTORE POP SWAP1 JUMP JUMPDEST PUSH0 DUP1 REVERT JUMPDEST PUSH0 PUSH20 0xFFFFFFFFFFFFFFFFFFFFFFFFFFFFFFFFFFFFFFFF DUP3 AND SWAP1 POP SWAP2 SWAP1 POP JUMP JUMPDEST PUSH0 PUSH2 0x6EC DUP3 PUSH2 0x6C3 JUMP JUMPDEST SWAP1 POP SWAP2 SWAP1 POP JUMP JUMPDEST PUSH0 PUSH2 0x6FD DUP3 PUSH2 0x6E2 JUMP JUMPDEST SWAP1 POP SWAP2 SWAP1 POP JUMP JUMPDEST PUSH2 0x70D DUP2 PUSH2 0x6F3 JUMP JUMPDEST DUP2 EQ PUSH2 0x717 JUMPI PUSH0 DUP1 REVERT JUMPDEST POP JUMP JUMPDEST PUSH0 DUP2 MLOAD SWAP1 POP PUSH2 0x728 DUP2 PUSH2 0x704 JUMP JUMPDEST SWAP3 SWAP2 POP POP JUMP JUMPDEST PUSH0 PUSH1 0x20 DUP3 DUP5 SUB SLT ISZERO PUSH2 0x743 JUMPI PUSH2 0x742 PUSH2 0x6BF JUMP JUMPDEST JUMPDEST PUSH0 PUSH2 0x750 DUP5 DUP3 DUP6 ADD PUSH2 0x71A JUMP JUMPDEST SWAP2 POP POP SWAP3 SWAP2 POP POP JUMP JUMPDEST PUSH0 PUSH13 0xFFFFFFFFFFFFFFFFFFFFFFFFFF DUP3 AND SWAP1 POP SWAP2 SWAP1 POP JUMP JUMPDEST PUSH32 0x4E487B7100000000000000000000000000000000000000000000000000000000 PUSH0 MSTORE PUSH1 0x11 PUSH1 0x4 MSTORE PUSH1 0x24 PUSH0 REVERT JUMPDEST PUSH0 PUSH2 0x7A8 DUP3 PUSH2 0x759 JUMP JUMPDEST SWAP2 POP PUSH2 0x7B3 DUP4 PUSH2 0x759 JUMP JUMPDEST SWAP3 POP DUP3 DUP3 ADD SWAP1 POP PUSH13 0xFFFFFFFFFFFFFFFFFFFFFFFFFF DUP2 GT ISZERO PUSH2 0x7D8 JUMPI PUSH2 0x7D7 PUSH2 0x771 JUMP JUMPDEST JUMPDEST SWAP3 SWAP2 POP POP JUMP JUMPDEST PUSH0 PUSH16 0xFFFFFFFFFFFFFFFFFFFFFFFFFFFFFFFF DUP3 AND SWAP1 POP SWAP2 SWAP1 POP JUMP JUMPDEST PUSH0 PUSH2 0x803 DUP3 PUSH2 0x7DE JUMP JUMPDEST SWAP2 POP PUSH2 0x80E DUP4 PUSH2 0x7DE JUMP JUMPDEST SWAP3 POP DUP3 DUP3 MUL PUSH2 0x81C DUP2 PUSH2 0x7DE JUMP JUMPDEST SWAP2 POP DUP1 DUP3 EQ PUSH2 0x82E JUMPI PUSH2 0x82D PUSH2 0x771 JUMP JUMPDEST JUMPDEST POP SWAP3 SWAP2 POP POP JUMP JUMPDEST PUSH0 PUSH2 0x83F DUP3 PUSH2 0x7DE JUMP JUMPDEST SWAP2 POP PUSH2 0x84A DUP4 PUSH2 0x7DE JUMP JUMPDEST SWAP3 POP DUP3 DUP3 ADD SWAP1 POP PUSH16 0xFFFFFFFFFFFFFFFFFFFFFFFFFFFFFFFF DUP2 GT ISZERO PUSH2 0x872 JUMPI PUSH2 0x871 PUSH2 0x771 JUMP JUMPDEST JUMPDEST SWAP3 SWAP2 POP POP JUMP JUMPDEST PUSH32 0x4E487B7100000000000000000000000000000000000000000000000000000000 PUSH0 MSTORE PUSH1 0x12 PUSH1 0x4 MSTORE PUSH1 0x24 PUSH0 REVERT JUMPDEST PUSH0 PUSH2 0x8AF DUP3 PUSH2 0x7DE JUMP JUMPDEST SWAP2 POP PUSH2 0x8BA DUP4 PUSH2 0x7DE JUMP JUMPDEST SWAP3 POP DUP3 PUSH2 0x8CA JUMPI PUSH2 0x8C9 PUSH2 0x878 JUMP JUMPDEST JUMPDEST DUP3 DUP3 DIV SWAP1 POP SWAP3 SWAP2 POP POP JUMP JUMPDEST PUSH0 PUSH2 0x8DF DUP3 PUSH2 0x759 JUMP JUMPDEST SWAP2 POP PUSH13 0xFFFFFFFFFFFFFFFFFFFFFFFFFF DUP3 SUB PUSH2 0x8FE JUMPI PUSH2 0x8FD PUSH2 0x771 JUMP JUMPDEST JUMPDEST PUSH1 0x1 DUP3 ADD SWAP1 POP SWAP2 SWAP1 POP JUMP JUMPDEST PUSH1 0x80 MLOAD PUSH2 0x18D6 PUSH2 0x92F PUSH0 CODECOPY PUSH0 DUP2 DUP2 PUSH2 0x4BA ADD MSTORE DUP2 DUP2 PUSH2 0x4E1 ADD MSTORE PUSH2 0x5FC ADD MSTORE PUSH2 0x18D6 PUSH0 RETURN INVALID PUSH1 0x80 PUSH1 0x40 MSTORE CALLVALUE DUP1 ISZERO PUSH2 0xF JUMPI PUSH0 DUP1 REVERT JUMPDEST POP PUSH1 0x4 CALLDATASIZE LT PUSH2 0x109 JUMPI PUSH0 CALLDATALOAD PUSH1 0xE0 SHR DUP1 PUSH4 0x8DB2B652 GT PUSH2 0xA0 JUMPI DUP1 PUSH4 0xB47B2FB1 GT PUSH2 0x6F JUMPI DUP1 PUSH4 0xB47B2FB1 EQ PUSH2 0x309 JUMPI DUP1 PUSH4 0xB6A8B0FA EQ PUSH2 0x33A JUMPI DUP1 PUSH4 0xC4E833CE EQ PUSH2 0x36A JUMPI DUP1 PUSH4 0xCD2C70E8 EQ PUSH2 0x388 JUMPI DUP1 PUSH4 0xE1B4AF69 EQ PUSH2 0x3A6 JUMPI PUSH2 0x109 JUMP JUMPDEST DUP1 PUSH4 0x8DB2B652 EQ PUSH2 0x25A JUMPI DUP1 PUSH4 0x91DD7346 EQ PUSH2 0x28B JUMPI DUP1 PUSH4 0x9A161DAA EQ PUSH2 0x2BB JUMPI DUP1 PUSH4 0xA910F80F EQ PUSH2 0x2D9 JUMPI PUSH2 0x109 JUMP JUMPDEST DUP1 PUSH4 0x455259CB GT PUSH2 0xDC JUMPI DUP1 PUSH4 0x455259CB EQ PUSH2 0x1BB JUMPI DUP1 PUSH4 0x481C6A75 EQ PUSH2 0x1D9 JUMPI DUP1 PUSH4 0x575E24B4 EQ PUSH2 0x1F7 JUMPI DUP1 PUSH4 0x5A2A8100 EQ PUSH2 0x229 JUMPI PUSH2 0x109 JUMP JUMPDEST DUP1 PUSH4 0x21D0EE70 EQ PUSH2 0x10D JUMPI DUP1 PUSH4 0x259982E5 EQ PUSH2 0x13D JUMPI DUP1 PUSH4 0x3440D820 EQ PUSH2 0x16D JUMPI DUP1 PUSH4 0x3D18651E EQ PUSH2 0x19D JUMPI JUMPDEST PUSH0 DUP1 REVERT JUMPDEST PUSH2 0x127 PUSH1 0x4 DUP1 CALLDATASIZE SUB DUP2 ADD SWAP1 PUSH2 0x122 SWAP2 SWAP1 PUSH2 0xCAD JUMP JUMPDEST PUSH2 0x3D6 JUMP JUMPDEST PUSH1 0x40 MLOAD PUSH2 0x134 SWAP2 SWAP1 PUSH2 0xD6D JUMP JUMPDEST PUSH1 0x40 MLOAD DUP1 SWAP2 SUB SWAP1 RETURN JUMPDEST PUSH2 0x157 PUSH1 0x4 DUP1 CALLDATASIZE SUB DUP2 ADD SWAP1 PUSH2 0x152 SWAP2 SWAP1 PUSH2 0xCAD JUMP JUMPDEST PUSH2 0x409 JUMP JUMPDEST PUSH1 0x40 MLOAD PUSH2 0x164 SWAP2 SWAP1 PUSH2 0xD6D JUMP JUMPDEST PUSH1 0x40 MLOAD DUP1 SWAP2 SUB SWAP1 RETURN JUMPDEST PUSH2 0x187 PUSH1 0x4 DUP1 CALLDATASIZE SUB DUP2 ADD SWAP1 PUSH2 0x182 SWAP2 SWAP1 PUSH2 0xDB0 JUMP JUMPDEST PUSH2 0x43C JUMP JUMPDEST PUSH1 0x40 MLOAD PUSH2 0x194 SWAP2 SWAP1 PUSH2 0xD6D JUMP JUMPDEST PUSH1 0x40 MLOAD DUP1 SWAP2 SUB SWAP1 RETURN JUMPDEST PUSH2 0x1A5 PUSH2 0x4A6 JUMP JUMPDEST PUSH1 0x40 MLOAD PUSH2 0x1B2 SWAP2 SWAP1 PUSH2 0xE52 JUMP JUMPDEST PUSH1 0x40 MLOAD DUP1 SWAP2 SUB SWAP1 RETURN JUMPDEST PUSH2 0x1C3 PUSH2 0x4AC JUMP JUMPDEST PUSH1 0x40 MLOAD PUSH2 0x1D0 SWAP2 SWAP1 PUSH2 0xE95 JUMP JUMPDEST PUSH1 0x40 MLOAD DUP1 SWAP2 SUB SWAP1 RETURN JUMPDEST PUSH2 0x1E1 PUSH2 0x4B8 JUMP JUMPDEST PUSH1 0x40 MLOAD PUSH2 0x1EE SWAP2 SWAP1 PUSH2 0xF09 JUMP JUMPDEST PUSH1 0x40 MLOAD DUP1 SWAP2 SUB SWAP1 RETURN JUMPDEST PUSH2 0x211 PUSH1 0x4 DUP1 CALLDATASIZE SUB DUP2 ADD SWAP1 PUSH2 0x20C SWAP2 SWAP1 PUSH2 0xF40 JUMP JUMPDEST PUSH2 0x4DC JUMP JUMPDEST PUSH1 0x40 MLOAD PUSH2 0x220 SWAP4 SWAP3 SWAP2 SWAP1 PUSH2 0xFFF JUMP JUMPDEST PUSH1 0x40 MLOAD DUP1 SWAP2 SUB SWAP1 RETURN JUMPDEST PUSH2 0x243 PUSH1 0x4 DUP1 CALLDATASIZE SUB DUP2 ADD SWAP1 PUSH2 0x23E SWAP2 SWAP1 PUSH2 0x105E JUMP JUMPDEST PUSH2 0x590 JUMP JUMPDEST PUSH1 0x40 MLOAD PUSH2 0x251 SWAP3 SWAP2 SWAP1 PUSH2 0x1106 JUMP JUMPDEST PUSH1 0x40 MLOAD DUP1 SWAP2 SUB SWAP1 RETURN JUMPDEST PUSH2 0x274 PUSH1 0x4 DUP1 CALLDATASIZE SUB DUP2 ADD SWAP1 PUSH2 0x26F SWAP2 SWAP1 PUSH2 0x105E JUMP JUMPDEST PUSH2 0x5C4 JUMP JUMPDEST PUSH1 0x40 MLOAD PUSH2 0x282 SWAP3 SWAP2 SWAP1 PUSH2 0x1106 JUMP JUMPDEST PUSH1 0x40 MLOAD DUP1 SWAP2 SUB SWAP1 RETURN JUMPDEST PUSH2 0x2A5 PUSH1 0x4 DUP1 CALLDATASIZE SUB DUP2 ADD SWAP1 PUSH2 0x2A0 SWAP2 SWAP1 PUSH2 0x112D JUMP JUMPDEST PUSH2 0x5F8 JUMP JUMPDEST PUSH1 0x40 MLOAD PUSH2 0x2B2 SWAP2 SWAP1 PUSH2 0x11E8 JUMP JUMPDEST PUSH1 0x40 MLOAD DUP1 SWAP2 SUB SWAP1 RETURN JUMPDEST PUSH2 0x2C3 PUSH2 0x691 JUMP JUMPDEST PUSH1 0x40 MLOAD PUSH2 0x2D0 SWAP2 SWAP1 PUSH2 0xE95 JUMP JUMPDEST PUSH1 0x40 MLOAD DUP1 SWAP2 SUB SWAP1 RETURN JUMPDEST PUSH2 0x2F3 PUSH1 0x4 DUP1 CALLDATASIZE SUB DUP2 ADD SWAP1 PUSH2 0x2EE SWAP2 SWAP1 PUSH2 0x123E JUMP JUMPDEST PUSH2 0x6B0 JUMP JUMPDEST PUSH1 0x40 MLOAD PUSH2 0x300 SWAP2 SWAP1 PUSH2 0xD6D JUMP JUMPDEST PUSH1 0x40 MLOAD DUP1 SWAP2 SUB SWAP1 RETURN JUMPDEST PUSH2 0x323 PUSH1 0x4 DUP1 CALLDATASIZE SUB DUP2 ADD SWAP1 PUSH2 0x31E SWAP2 SWAP1 PUSH2 0x12D6 JUMP JUMPDEST PUSH2 0x6E3 JUMP JUMPDEST PUSH1 0x40 MLOAD PUSH2 0x331 SWAP3 SWAP2 SWAP1 PUSH2 0x138A JUMP JUMPDEST PUSH1 0x40 MLOAD DUP1 SWAP2 SUB SWAP1 RETURN JUMPDEST PUSH2 0x354 PUSH1 0x4 DUP1 CALLDATASIZE SUB DUP2 ADD SWAP1 PUSH2 0x34F SWAP2 SWAP1 PUSH2 0x13E4 JUMP JUMPDEST PUSH2 0x705 JUMP JUMPDEST PUSH1 0x40 MLOAD PUSH2 0x361 SWAP2 SWAP1 PUSH2 0xD6D JUMP JUMPDEST PUSH1 0x40 MLOAD DUP1 SWAP2 SUB SWAP1 RETURN JUMPDEST PUSH2 0x372 PUSH2 0x738 JUMP JUMPDEST PUSH1 0x40 MLOAD PUSH2 0x37F SWAP2 SWAP1 PUSH2 0x15B4 JUMP JUMPDEST PUSH1 0x40 MLOAD DUP1 SWAP2 SUB SWAP1 RETURN JUMPDEST PUSH2 0x390 PUSH2 0x7C2 JUMP JUMPDEST PUSH1 0x40 MLOAD PUSH2 0x39D SWAP2 SWAP1 PUSH2 0x15F5 JUMP JUMPDEST PUSH1 0x40 MLOAD DUP1 SWAP2 SUB SWAP1 RETURN JUMPDEST PUSH2 0x3C0 PUSH1 0x4 DUP1 CALLDATASIZE SUB DUP2 ADD SWAP1 PUSH2 0x3BB SWAP2 SWAP1 PUSH2 0x13E4 JUMP JUMPDEST PUSH2 0x7E0 JUMP JUMPDEST PUSH1 0x40 MLOAD PUSH2 0x3CD SWAP2 SWAP1 PUSH2 0xD6D JUMP JUMPDEST PUSH1 0x40 MLOAD DUP1 SWAP2 SUB SWAP1 RETURN JUMPDEST PUSH0 PUSH1 0x40 MLOAD PUSH32 0xA85DC2900000000000000000000000000000000000000000000000000000000 DUP2 MSTORE PUSH1 0x4 ADD PUSH1 0x40 MLOAD DUP1 SWAP2 SUB SWAP1 REVERT JUMPDEST PUSH0 PUSH1 0x40 MLOAD PUSH32 0xA85DC2900000000000000000000000000000000000000000000000000000000 DUP2 MSTORE PUSH1 0x4 ADD PUSH1 0x40 MLOAD DUP1 SWAP2 SUB SWAP1 REVERT JUMPDEST PUSH0 PUSH2 0x45D DUP6 PUSH1 0x40 ADD PUSH1 0x20 DUP2 ADD SWAP1 PUSH2 0x453 SWAP2 SWAP1 PUSH2 0x1638 JUMP JUMPDEST PUSH3 0xFFFFFF AND PUSH2 0x813 JUMP JUMPDEST PUSH2 0x493 JUMPI PUSH1 0x40 MLOAD PUSH32 0xAD9EB4F800000000000000000000000000000000000000000000000000000000 DUP2 MSTORE PUSH1 0x4 ADD PUSH1 0x40 MLOAD DUP1 SWAP2 SUB SWAP1 REVERT JUMPDEST PUSH4 0x3440D820 PUSH1 0xE0 SHL SWAP1 POP SWAP6 SWAP5 POP POP POP POP POP JUMP JUMPDEST PUSH2 0x1388 DUP2 JUMP JUMPDEST PUSH0 DUP1 GASPRICE SWAP1 POP DUP1 SWAP2 POP POP SWAP1 JUMP JUMPDEST PUSH32 0x0 DUP2 JUMP JUMPDEST PUSH0 DUP1 PUSH0 PUSH32 0x0 PUSH20 0xFFFFFFFFFFFFFFFFFFFFFFFFFFFFFFFFFFFFFFFF AND CALLER PUSH20 0xFFFFFFFFFFFFFFFFFFFFFFFFFFFFFFFFFFFFFFFF AND EQ PUSH2 0x564 JUMPI PUSH1 0x40 MLOAD PUSH32 0xC0FC8A8A00000000000000000000000000000000000000000000000000000000 DUP2 MSTORE PUSH1 0x4 ADD PUSH1 0x40 MLOAD DUP1 SWAP2 SUB SWAP1 REVERT JUMPDEST PUSH0 PUSH2 0x56D PUSH2 0x82B JUMP JUMPDEST SWAP1 POP PUSH4 0x575E24B4 PUSH1 0xE0 SHL PUSH0 PUSH3 0x400000 DUP4 OR SWAP4 POP SWAP4 POP SWAP4 POP POP SWAP6 POP SWAP6 POP SWAP6 SWAP3 POP POP POP JUMP JUMPDEST PUSH0 DUP1 PUSH1 0x40 MLOAD PUSH32 0xA85DC2900000000000000000000000000000000000000000000000000000000 DUP2 MSTORE PUSH1 0x4 ADD PUSH1 0x40 MLOAD DUP1 SWAP2 SUB SWAP1 REVERT JUMPDEST PUSH0 DUP1 PUSH1 0x40 MLOAD PUSH32 0xA85DC2900000000000000000000000000000000000000000000000000000000 DUP2 MSTORE PUSH1 0x4 ADD PUSH1 0x40 MLOAD DUP1 SWAP2 SUB SWAP1 REVERT JUMPDEST PUSH1 0x60 PUSH32 0x0 PUSH20 0xFFFFFFFFFFFFFFFFFFFFFFFFFFFFFFFFFFFFFFFF AND CALLER PUSH20 0xFFFFFFFFFFFFFFFFFFFFFFFFFFFFFFFFFFFFFFFF AND EQ PUSH2 0x67F JUMPI PUSH1 0x40 MLOAD PUSH32 0xC0FC8A8A00000000000000000000000000000000000000000000000000000000 DUP2 MSTORE PUSH1 0x4 ADD PUSH1 0x40 MLOAD DUP1 SWAP2 SUB SWAP1 REVERT JUMPDEST PUSH2 0x689 DUP4 DUP4 PUSH2 0x92D JUMP JUMPDEST SWAP1 POP SWAP3 SWAP2 POP POP JUMP JUMPDEST PUSH0 DUP1 SLOAD SWAP1 PUSH2 0x100 EXP SWAP1 DIV PUSH16 0xFFFFFFFFFFFFFFFFFFFFFFFFFFFFFFFF AND DUP2 JUMP JUMPDEST PUSH0 PUSH1 0x40 MLOAD PUSH32 0xA85DC2900000000000000000000000000000000000000000000000000000000 DUP2 MSTORE PUSH1 0x4 ADD PUSH1 0x40 MLOAD DUP1 SWAP2 SUB SWAP1 REVERT JUMPDEST PUSH0 DUP1 PUSH2 0x6ED PUSH2 0x9F3 JUMP JUMPDEST PUSH4 0xB47B2FB1 PUSH1 0xE0 SHL PUSH0 SWAP2 POP SWAP2 POP SWAP7 POP SWAP7 SWAP5 POP POP POP POP POP JUMP JUMPDEST PUSH0 PUSH1 0x40 MLOAD PUSH32 0xA85DC2900000000000000000000000000000000000000000000000000000000 DUP2 MSTORE PUSH1 0x4 ADD PUSH1 0x40 MLOAD DUP1 SWAP2 SUB SWAP1 REVERT JUMPDEST PUSH2 0x740 PUSH2 0xB2D JUMP JUMPDEST PUSH1 0x40 MLOAD DUP1 PUSH2 0x1C0 ADD PUSH1 0x40 MSTORE DUP1 PUSH1 0x1 ISZERO ISZERO DUP2 MSTORE PUSH1 0x20 ADD PUSH0 ISZERO ISZERO DUP2 MSTORE PUSH1 0x20 ADD PUSH0 ISZERO ISZERO DUP2 MSTORE PUSH1 0x20 ADD PUSH0 ISZERO ISZERO DUP2 MSTORE PUSH1 0x20 ADD PUSH0 ISZERO ISZERO DUP2 MSTORE PUSH1 0x20 ADD PUSH0 ISZERO ISZERO DUP2 MSTORE PUSH1 0x20 ADD PUSH1 0x1 ISZERO ISZERO DUP2 MSTORE PUSH1 0x20 ADD PUSH1 0x1 ISZERO ISZERO DUP2 MSTORE PUSH1 0x20 ADD PUSH0 ISZERO ISZERO DUP2 MSTORE PUSH1 0x20 ADD PUSH0 ISZERO ISZERO DUP2 MSTORE PUSH1 0x20 ADD PUSH0 ISZERO ISZERO DUP2 MSTORE PUSH1 0x20 ADD PUSH0 ISZERO ISZERO DUP2 MSTORE PUSH1 0x20 ADD PUSH0 ISZERO ISZERO DUP2 MSTORE PUSH1 0x20 ADD PUSH0 ISZERO ISZERO DUP2 MSTORE POP SWAP1 POP SWAP1 JUMP JUMPDEST PUSH0 PUSH1 0x10 SWAP1 SLOAD SWAP1 PUSH2 0x100 EXP SWAP1 DIV PUSH13 0xFFFFFFFFFFFFFFFFFFFFFFFFFF AND DUP2 JUMP JUMPDEST PUSH0 PUSH1 0x40 MLOAD PUSH32 0xA85DC2900000000000000000000000000000000000000000000000000000000 DUP2 MSTORE PUSH1 0x4 ADD PUSH1 0x40 MLOAD DUP1 SWAP2 SUB SWAP1 REVERT JUMPDEST PUSH0 PUSH3 0x800000 PUSH3 0xFFFFFF AND DUP3 PUSH3 0xFFFFFF AND EQ SWAP1 POP SWAP2 SWAP1 POP JUMP JUMPDEST PUSH0 DUP1 PUSH2 0x835 PUSH2 0x4AC JUMP JUMPDEST SWAP1 POP PUSH1 0xA PUSH1 0xB PUSH0 DUP1 SLOAD SWAP1 PUSH2 0x100 EXP SWAP1 DIV PUSH16 0xFFFFFFFFFFFFFFFFFFFFFFFFFFFFFFFF AND PUSH2 0x861 SWAP2 SWAP1 PUSH2 0x1690 JUMP JUMPDEST PUSH2 0x86B SWAP2 SWAP1 PUSH2 0x16F9 JUMP JUMPDEST PUSH16 0xFFFFFFFFFFFFFFFFFFFFFFFFFFFFFFFF AND DUP2 PUSH16 0xFFFFFFFFFFFFFFFFFFFFFFFFFFFFFFFF AND GT ISZERO PUSH2 0x8AD JUMPI PUSH1 0x2 PUSH2 0x1388 PUSH2 0x8A5 SWAP2 SWAP1 PUSH2 0x1729 JUMP JUMPDEST SWAP2 POP POP PUSH2 0x92A JUMP JUMPDEST PUSH1 0xA PUSH1 0x9 PUSH0 DUP1 SLOAD SWAP1 PUSH2 0x100 EXP SWAP1 DIV PUSH16 0xFFFFFFFFFFFFFFFFFFFFFFFFFFFFFFFF AND PUSH2 0x8D7 SWAP2 SWAP1 PUSH2 0x1690 JUMP JUMPDEST PUSH2 0x8E1 SWAP2 SWAP1 PUSH2 0x16F9 JUMP JUMPDEST PUSH16 0xFFFFFFFFFFFFFFFFFFFFFFFFFFFFFFFF AND DUP2 PUSH16 0xFFFFFFFFFFFFFFFFFFFFFFFFFFFFFFFF AND LT ISZERO PUSH2 0x923 JUMPI PUSH1 0x2 PUSH2 0x1388 PUSH2 0x91B SWAP2 SWAP1 PUSH2 0x1759 JUMP JUMPDEST SWAP2 POP POP PUSH2 0x92A JUMP JUMPDEST PUSH2 0x1388 SWAP2 POP POP JUMPDEST SWAP1 JUMP JUMPDEST PUSH1 0x60 PUSH0 DUP1 ADDRESS PUSH20 0xFFFFFFFFFFFFFFFFFFFFFFFFFFFFFFFFFFFFFFFF AND DUP6 DUP6 PUSH1 0x40 MLOAD PUSH2 0x958 SWAP3 SWAP2 SWAP1 PUSH2 0x17D1 JUMP JUMPDEST PUSH0 PUSH1 0x40 MLOAD DUP1 DUP4 SUB DUP2 PUSH0 DUP7 GAS CALL SWAP2 POP POP RETURNDATASIZE DUP1 PUSH0 DUP2 EQ PUSH2 0x991 JUMPI PUSH1 0x40 MLOAD SWAP2 POP PUSH1 0x1F NOT PUSH1 0x3F RETURNDATASIZE ADD AND DUP3 ADD PUSH1 0x40 MSTORE RETURNDATASIZE DUP3 MSTORE RETURNDATASIZE PUSH0 PUSH1 0x20 DUP5 ADD RETURNDATACOPY PUSH2 0x996 JUMP JUMPDEST PUSH1 0x60 SWAP2 POP JUMPDEST POP SWAP2 POP SWAP2 POP DUP2 ISZERO PUSH2 0x9AB JUMPI DUP1 SWAP3 POP POP POP PUSH2 0x9ED JUMP JUMPDEST PUSH0 DUP2 MLOAD SUB PUSH2 0x9E5 JUMPI PUSH1 0x40 MLOAD PUSH32 0xA40AFA3800000000000000000000000000000000000000000000000000000000 DUP2 MSTORE PUSH1 0x4 ADD PUSH1 0x40 MLOAD DUP1 SWAP2 SUB SWAP1 REVERT JUMPDEST DUP1 MLOAD PUSH1 0x20 DUP3 ADD REVERT JUMPDEST SWAP3 SWAP2 POP POP JUMP JUMPDEST PUSH0 PUSH2 0x9FC PUSH2 0x4AC JUMP JUMPDEST SWAP1 POP PUSH1 0x1 PUSH0 PUSH1 0x10 SWAP1 SLOAD SWAP1 PUSH2 0x100 EXP SWAP1 DIV PUSH13 0xFFFFFFFFFFFFFFFFFFFFFFFFFF AND PUSH2 0xA25 SWAP2 SWAP1 PUSH2 0x17E9 JUMP JUMPDEST PUSH13 0xFFFFFFFFFFFFFFFFFFFFFFFFFF AND DUP2 PUSH0 PUSH1 0x10 SWAP1 SLOAD SWAP1 PUSH2 0x100 EXP SWAP1 DIV PUSH13 0xFFFFFFFFFFFFFFFFFFFFFFFFFF AND PUSH13 0xFFFFFFFFFFFFFFFFFFFFFFFFFF AND PUSH0 DUP1 SLOAD SWAP1 PUSH2 0x100 EXP SWAP1 DIV PUSH16 0xFFFFFFFFFFFFFFFFFFFFFFFFFFFFFFFF AND PUSH2 0xA85 SWAP2 SWAP1 PUSH2 0x1690 JUMP JUMPDEST PUSH2 0xA8F SWAP2 SWAP1 PUSH2 0x1829 JUMP JUMPDEST PUSH2 0xA99 SWAP2 SWAP1 PUSH2 0x16F9 JUMP JUMPDEST PUSH0 DUP1 PUSH2 0x100 EXP DUP2 SLOAD DUP2 PUSH16 0xFFFFFFFFFFFFFFFFFFFFFFFFFFFFFFFF MUL NOT AND SWAP1 DUP4 PUSH16 0xFFFFFFFFFFFFFFFFFFFFFFFFFFFFFFFF AND MUL OR SWAP1 SSTORE POP PUSH0 PUSH1 0x10 DUP2 DUP2 SWAP1 SLOAD SWAP1 PUSH2 0x100 EXP SWAP1 DIV PUSH13 0xFFFFFFFFFFFFFFFFFFFFFFFFFF AND DUP1 SWAP3 SWAP2 SWAP1 PUSH2 0xAF9 SWAP1 PUSH2 0x186C JUMP JUMPDEST SWAP2 SWAP1 PUSH2 0x100 EXP DUP2 SLOAD DUP2 PUSH13 0xFFFFFFFFFFFFFFFFFFFFFFFFFF MUL NOT AND SWAP1 DUP4 PUSH13 0xFFFFFFFFFFFFFFFFFFFFFFFFFF AND MUL OR SWAP1 SSTORE POP POP POP JUMP JUMPDEST PUSH1 0x40 MLOAD DUP1 PUSH2 0x1C0 ADD PUSH1 0x40 MSTORE DUP1 PUSH0 ISZERO ISZERO DUP2 MSTORE PUSH1 0x20 ADD PUSH0 ISZERO ISZERO DUP2 MSTORE PUSH1 0x20 ADD PUSH0 ISZERO ISZERO DUP2 MSTORE PUSH1 0x20 ADD PUSH0 ISZERO ISZERO DUP2 MSTORE PUSH1 0x20 ADD PUSH0 ISZERO ISZERO DUP2 MSTORE PUSH1 0x20 ADD PUSH0 ISZERO ISZERO DUP2 MSTORE PUSH1 0x20 ADD PUSH0 ISZERO ISZERO DUP2 MSTORE PUSH1 0x20 ADD PUSH0 ISZERO ISZERO DUP2 MSTORE PUSH1 0x20 ADD PUSH0 ISZERO ISZERO DUP2 MSTORE PUSH1 0x20 ADD PUSH0 ISZERO ISZERO DUP2 MSTORE PUSH1 0x20 ADD PUSH0 ISZERO ISZERO DUP2 MSTORE PUSH1 0x20 ADD PUSH0 ISZERO ISZERO DUP2 MSTORE PUSH1 0x20 ADD PUSH0 ISZERO ISZERO DUP2 MSTORE PUSH1 0x20 ADD PUSH0 ISZERO ISZERO DUP2 MSTORE POP SWAP1 JUMP JUMPDEST PUSH0 DUP1 REVERT JUMPDEST PUSH0 DUP1 REVERT JUMPDEST PUSH0 PUSH20 0xFFFFFFFFFFFFFFFFFFFFFFFFFFFFFFFFFFFFFFFF DUP3 AND SWAP1 POP SWAP2 SWAP1 POP JUMP JUMPDEST PUSH0 PUSH2 0xBDB DUP3 PUSH2 0xBB2 JUMP JUMPDEST SWAP1 POP SWAP2 SWAP1 POP JUMP JUMPDEST PUSH2 0xBEB DUP2 PUSH2 0xBD1 JUMP JUMPDEST DUP2 EQ PUSH2 0xBF5 JUMPI PUSH0 DUP1 REVERT JUMPDEST POP JUMP JUMPDEST PUSH0 DUP2 CALLDATALOAD SWAP1 POP PUSH2 0xC06 DUP2 PUSH2 0xBE2 JUMP JUMPDEST SWAP3 SWAP2 POP POP JUMP JUMPDEST PUSH0 DUP1 REVERT JUMPDEST PUSH0 PUSH1 0xA0 DUP3 DUP5 SUB SLT ISZERO PUSH2 0xC25 JUMPI PUSH2 0xC24 PUSH2 0xC0C JUMP JUMPDEST JUMPDEST DUP2 SWAP1 POP SWAP3 SWAP2 POP POP JUMP JUMPDEST PUSH0 PUSH1 0x80 DUP3 DUP5 SUB SLT ISZERO PUSH2 0xC43 JUMPI PUSH2 0xC42 PUSH2 0xC0C JUMP JUMPDEST JUMPDEST DUP2 SWAP1 POP SWAP3 SWAP2 POP POP JUMP JUMPDEST PUSH0 DUP1 REVERT JUMPDEST PUSH0 DUP1 REVERT JUMPDEST PUSH0 DUP1 REVERT JUMPDEST PUSH0 DUP1 DUP4 PUSH1 0x1F DUP5 ADD SLT PUSH2 0xC6D JUMPI PUSH2 0xC6C PUSH2 0xC4C JUMP JUMPDEST JUMPDEST DUP3 CALLDATALOAD SWAP1 POP PUSH8 0xFFFFFFFFFFFFFFFF DUP2 GT ISZERO PUSH2 0xC8A JUMPI PUSH2 0xC89 PUSH2 0xC50 JUMP JUMPDEST JUMPDEST PUSH1 0x20 DUP4 ADD SWAP2 POP DUP4 PUSH1 0x1 DUP3 MUL DUP4 ADD GT ISZERO PUSH2 0xCA6 JUMPI PUSH2 0xCA5 PUSH2 0xC54 JUMP JUMPDEST JUMPDEST SWAP3 POP SWAP3 SWAP1 POP JUMP JUMPDEST PUSH0 DUP1 PUSH0 DUP1 PUSH0 PUSH2 0x160 DUP7 DUP9 SUB SLT ISZERO PUSH2 0xCC7 JUMPI PUSH2 0xCC6 PUSH2 0xBAA JUMP JUMPDEST JUMPDEST PUSH0 PUSH2 0xCD4 DUP9 DUP3 DUP10 ADD PUSH2 0xBF8 JUMP JUMPDEST SWAP6 POP POP PUSH1 0x20 PUSH2 0xCE5 DUP9 DUP3 DUP10 ADD PUSH2 0xC10 JUMP JUMPDEST SWAP5 POP POP PUSH1 0xC0 PUSH2 0xCF6 DUP9 DUP3 DUP10 ADD PUSH2 0xC2E JUMP JUMPDEST SWAP4 POP POP PUSH2 0x140 DUP7 ADD CALLDATALOAD PUSH8 0xFFFFFFFFFFFFFFFF DUP2 GT ISZERO PUSH2 0xD18 JUMPI PUSH2 0xD17 PUSH2 0xBAE JUMP JUMPDEST JUMPDEST PUSH2 0xD24 DUP9 DUP3 DUP10 ADD PUSH2 0xC58 JUMP JUMPDEST SWAP3 POP SWAP3 POP POP SWAP3 SWAP6 POP SWAP3 SWAP6 SWAP1 SWAP4 POP JUMP JUMPDEST PUSH0 PUSH32 0xFFFFFFFF00000000000000000000000000000000000000000000000000000000 DUP3 AND SWAP1 POP SWAP2 SWAP1 POP JUMP JUMPDEST PUSH2 0xD67 DUP2 PUSH2 0xD33 JUMP JUMPDEST DUP3 MSTORE POP POP JUMP JUMPDEST PUSH0 PUSH1 0x20 DUP3 ADD SWAP1 POP PUSH2 0xD80 PUSH0 DUP4 ADD DUP5 PUSH2 0xD5E JUMP JUMPDEST SWAP3 SWAP2 POP POP JUMP JUMPDEST PUSH2 0xD8F DUP2 PUSH2 0xBB2 JUMP JUMPDEST DUP2 EQ PUSH2 0xD99 JUMPI PUSH0 DUP1 REVERT JUMPDEST POP JUMP JUMPDEST PUSH0 DUP2 CALLDATALOAD SWAP1 POP PUSH2 0xDAA DUP2 PUSH2 0xD86 JUMP JUMPDEST SWAP3 SWAP2 POP POP JUMP JUMPDEST PUSH0 DUP1 PUSH0 DUP1 PUSH0 PUSH2 0x100 DUP7 DUP9 SUB SLT ISZERO PUSH2 0xDCA JUMPI PUSH2 0xDC9 PUSH2 0xBAA JUMP JUMPDEST JUMPDEST PUSH0 PUSH2 0xDD7 DUP9 DUP3 DUP10 ADD PUSH2 0xBF8 JUMP JUMPDEST SWAP6 POP POP PUSH1 0x20 PUSH2 0xDE8 DUP9 DUP3 DUP10 ADD PUSH2 0xC10 JUMP JUMPDEST SWAP5 POP POP PUSH1 0xC0 PUSH2 0xDF9 DUP9 DUP3 DUP10 ADD PUSH2 0xD9C JUMP JUMPDEST SWAP4 POP POP PUSH1 0xE0 DUP7 ADD CALLDATALOAD PUSH8 0xFFFFFFFFFFFFFFFF DUP2 GT ISZERO PUSH2 0xE1A JUMPI PUSH2 0xE19 PUSH2 0xBAE JUMP JUMPDEST JUMPDEST PUSH2 0xE26 DUP9 DUP3 DUP10 ADD PUSH2 0xC58 JUMP JUMPDEST SWAP3 POP SWAP3 POP POP SWAP3 SWAP6 POP SWAP3 SWAP6 SWAP1 SWAP4 POP JUMP JUMPDEST PUSH0 PUSH3 0xFFFFFF DUP3 AND SWAP1 POP SWAP2 SWAP1 POP JUMP JUMPDEST PUSH2 0xE4C DUP2 PUSH2 0xE35 JUMP JUMPDEST DUP3 MSTORE POP POP JUMP JUMPDEST PUSH0 PUSH1 0x20 DUP3 ADD SWAP1 POP PUSH2 0xE65 PUSH0 DUP4 ADD DUP5 PUSH2 0xE43 JUMP JUMPDEST SWAP3 SWAP2 POP POP JUMP JUMPDEST PUSH0 PUSH16 0xFFFFFFFFFFFFFFFFFFFFFFFFFFFFFFFF DUP3 AND SWAP1 POP SWAP2 SWAP1 POP JUMP JUMPDEST PUSH2 0xE8F DUP2 PUSH2 0xE6B JUMP JUMPDEST DUP3 MSTORE POP POP JUMP JUMPDEST PUSH0 PUSH1 0x20 DUP3 ADD SWAP1 POP PUSH2 0xEA8 PUSH0 DUP4 ADD DUP5 PUSH2 0xE86 JUMP JUMPDEST SWAP3 SWAP2 POP POP JUMP JUMPDEST PUSH0 DUP2 SWAP1 POP SWAP2 SWAP1 POP JUMP JUMPDEST PUSH0 PUSH2 0xED1 PUSH2 0xECC PUSH2 0xEC7 DUP5 PUSH2 0xBB2 JUMP JUMPDEST PUSH2 0xEAE JUMP JUMPDEST PUSH2 0xBB2 JUMP JUMPDEST SWAP1 POP SWAP2 SWAP1 POP JUMP JUMPDEST PUSH0 PUSH2 0xEE2 DUP3 PUSH2 0xEB7 JUMP JUMPDEST SWAP1 POP SWAP2 SWAP1 POP JUMP JUMPDEST PUSH0 PUSH2 0xEF3 DUP3 PUSH2 0xED8 JUMP JUMPDEST SWAP1 POP SWAP2 SWAP1 POP JUMP JUMPDEST PUSH2 0xF03 DUP2 PUSH2 0xEE9 JUMP JUMPDEST DUP3 MSTORE POP POP JUMP JUMPDEST PUSH0 PUSH1 0x20 DUP3 ADD SWAP1 POP PUSH2 0xF1C PUSH0 DUP4 ADD DUP5 PUSH2 0xEFA JUMP JUMPDEST SWAP3 SWAP2 POP POP JUMP JUMPDEST PUSH0 PUSH1 0x60 DUP3 DUP5 SUB SLT ISZERO PUSH2 0xF37 JUMPI PUSH2 0xF36 PUSH2 0xC0C JUMP JUMPDEST JUMPDEST DUP2 SWAP1 POP SWAP3 SWAP2 POP POP JUMP JUMPDEST PUSH0 DUP1 PUSH0 DUP1 PUSH0 PUSH2 0x140 DUP7 DUP9 SUB SLT ISZERO PUSH2 0xF5A JUMPI PUSH2 0xF59 PUSH2 0xBAA JUMP JUMPDEST JUMPDEST PUSH0 PUSH2 0xF67 DUP9 DUP3 DUP10 ADD PUSH2 0xBF8 JUMP JUMPDEST SWAP6 POP POP PUSH1 0x20 PUSH2 0xF78 DUP9 DUP3 DUP10 ADD PUSH2 0xC10 JUMP JUMPDEST SWAP5 POP POP PUSH1 0xC0 PUSH2 0xF89 DUP9 DUP3 DUP10 ADD PUSH2 0xF22 JUMP JUMPDEST SWAP4 POP POP PUSH2 0x120 DUP7 ADD CALLDATALOAD PUSH8 0xFFFFFFFFFFFFFFFF DUP2 GT ISZERO PUSH2 0xFAB JUMPI PUSH2 0xFAA PUSH2 0xBAE JUMP JUMPDEST JUMPDEST PUSH2 0xFB7 DUP9 DUP3 DUP10 ADD PUSH2 0xC58 JUMP JUMPDEST SWAP3 POP SWAP3 POP POP SWAP3 SWAP6 POP SWAP3 SWAP6 SWAP1 SWAP4 POP JUMP JUMPDEST PUSH0 DUP2 SWAP1 POP SWAP2 SWAP1 POP JUMP JUMPDEST PUSH0 PUSH2 0xFE9 PUSH2 0xFE4 PUSH2 0xFDF DUP5 PUSH2 0xFC6 JUMP JUMPDEST PUSH2 0xEAE JUMP JUMPDEST PUSH2 0xFC6 JUMP JUMPDEST SWAP1 POP SWAP2 SWAP1 POP JUMP JUMPDEST PUSH2 0xFF9 DUP2 PUSH2 0xFCF JUMP JUMPDEST DUP3 MSTORE POP POP JUMP JUMPDEST PUSH0 PUSH1 0x60 DUP3 ADD SWAP1 POP PUSH2 0x1012 PUSH0 DUP4 ADD DUP7 PUSH2 0xD5E JUMP JUMPDEST PUSH2 0x101F PUSH1 0x20 DUP4 ADD DUP6 PUSH2 0xFF0 JUMP JUMPDEST PUSH2 0x102C PUSH1 0x40 DUP4 ADD DUP5 PUSH2 0xE43 JUMP JUMPDEST SWAP5 SWAP4 POP POP POP POP JUMP JUMPDEST PUSH2 0x103D DUP2 PUSH2 0xFC6 JUMP JUMPDEST DUP2 EQ PUSH2 0x1047 JUMPI PUSH0 DUP1 REVERT JUMPDEST POP JUMP JUMPDEST PUSH0 DUP2 CALLDATALOAD SWAP1 POP PUSH2 0x1058 DUP2 PUSH2 0x1034 JUMP JUMPDEST SWAP3 SWAP2 POP POP JUMP JUMPDEST PUSH0 DUP1 PUSH0 DUP1 PUSH0 DUP1 PUSH2 0x180 DUP8 DUP10 SUB SLT ISZERO PUSH2 0x1079 JUMPI PUSH2 0x1078 PUSH2 0xBAA JUMP JUMPDEST JUMPDEST PUSH0 PUSH2 0x1086 DUP10 DUP3 DUP11 ADD PUSH2 0xBF8 JUMP JUMPDEST SWAP7 POP POP PUSH1 0x20 PUSH2 0x1097 DUP10 DUP3 DUP11 ADD PUSH2 0xC10 JUMP JUMPDEST SWAP6 POP POP PUSH1 0xC0 PUSH2 0x10A8 DUP10 DUP3 DUP11 ADD PUSH2 0xC2E JUMP JUMPDEST SWAP5 POP POP PUSH2 0x140 PUSH2 0x10BA DUP10 DUP3 DUP11 ADD PUSH2 0x104A JUMP JUMPDEST SWAP4 POP POP PUSH2 0x160 DUP8 ADD CALLDATALOAD PUSH8 0xFFFFFFFFFFFFFFFF DUP2 GT ISZERO PUSH2 0x10DC JUMPI PUSH2 0x10DB PUSH2 0xBAE JUMP JUMPDEST JUMPDEST PUSH2 0x10E8 DUP10 DUP3 DUP11 ADD PUSH2 0xC58 JUMP JUMPDEST SWAP3 POP SWAP3 POP POP SWAP3 SWAP6 POP SWAP3 SWAP6 POP SWAP3 SWAP6 JUMP JUMPDEST PUSH2 0x1100 DUP2 PUSH2 0xFCF JUMP JUMPDEST DUP3 MSTORE POP POP JUMP JUMPDEST PUSH0 PUSH1 0x40 DUP3 ADD SWAP1 POP PUSH2 0x1119 PUSH0 DUP4 ADD DUP6 PUSH2 0xD5E JUMP JUMPDEST PUSH2 0x1126 PUSH1 0x20 DUP4 ADD DUP5 PUSH2 0x10F7 JUMP JUMPDEST SWAP4 SWAP3 POP POP POP JUMP JUMPDEST PUSH0 DUP1 PUSH1 0x20 DUP4 DUP6 SUB SLT ISZERO PUSH2 0x1143 JUMPI PUSH2 0x1142 PUSH2 0xBAA JUMP JUMPDEST JUMPDEST PUSH0 DUP4 ADD CALLDATALOAD PUSH8 0xFFFFFFFFFFFFFFFF DUP2 GT ISZERO PUSH2 0x1160 JUMPI PUSH2 0x115F PUSH2 0xBAE JUMP JUMPDEST JUMPDEST PUSH2 0x116C DUP6 DUP3 DUP7 ADD PUSH2 0xC58 JUMP JUMPDEST SWAP3 POP SWAP3 POP POP SWAP3 POP SWAP3 SWAP1 POP JUMP JUMPDEST PUSH0 DUP2 MLOAD SWAP1 POP SWAP2 SWAP1 POP JUMP JUMPDEST PUSH0 DUP3 DUP3 MSTORE PUSH1 0x20 DUP3 ADD SWAP1 POP SWAP3 SWAP2 POP POP JUMP JUMPDEST DUP3 DUP2 DUP4 MCOPY PUSH0 DUP4 DUP4 ADD MSTORE POP POP POP JUMP JUMPDEST PUSH0 PUSH1 0x1F NOT PUSH1 0x1F DUP4 ADD AND SWAP1 POP SWAP2 SWAP1 POP JUMP JUMPDEST PUSH0 PUSH2 0x11BA DUP3 PUSH2 0x1178 JUMP JUMPDEST PUSH2 0x11C4 DUP2 DUP6 PUSH2 0x1182 JUMP JUMPDEST SWAP4 POP PUSH2 0x11D4 DUP2 DUP6 PUSH1 0x20 DUP7 ADD PUSH2 0x1192 JUMP JUMPDEST PUSH2 0x11DD DUP2 PUSH2 0x11A0 JUMP JUMPDEST DUP5 ADD SWAP2 POP POP SWAP3 SWAP2 POP POP JUMP JUMPDEST PUSH0 PUSH1 0x20 DUP3 ADD SWAP1 POP DUP2 DUP2 SUB PUSH0 DUP4 ADD MSTORE PUSH2 0x1200 DUP2 DUP5 PUSH2 0x11B0 JUMP JUMPDEST SWAP1 POP SWAP3 SWAP2 POP POP JUMP JUMPDEST PUSH0 DUP2 PUSH1 0x2 SIGNEXTEND SWAP1 POP SWAP2 SWAP1 POP JUMP JUMPDEST PUSH2 0x121D DUP2 PUSH2 0x1208 JUMP JUMPDEST DUP2 EQ PUSH2 0x1227 JUMPI PUSH0 DUP1 REVERT JUMPDEST POP JUMP JUMPDEST PUSH0 DUP2 CALLDATALOAD SWAP1 POP PUSH2 0x1238 DUP2 PUSH2 0x1214 JUMP JUMPDEST SWAP3 SWAP2 POP POP JUMP JUMPDEST PUSH0 DUP1 PUSH0 DUP1 PUSH0 DUP1 PUSH2 0x120 DUP8 DUP10 SUB SLT ISZERO PUSH2 0x1259 JUMPI PUSH2 0x1258 PUSH2 0xBAA JUMP JUMPDEST JUMPDEST PUSH0 PUSH2 0x1266 DUP10 DUP3 DUP11 ADD PUSH2 0xBF8 JUMP JUMPDEST SWAP7 POP POP PUSH1 0x20 PUSH2 0x1277 DUP10 DUP3 DUP11 ADD PUSH2 0xC10 JUMP JUMPDEST SWAP6 POP POP PUSH1 0xC0 PUSH2 0x1288 DUP10 DUP3 DUP11 ADD PUSH2 0xD9C JUMP JUMPDEST SWAP5 POP POP PUSH1 0xE0 PUSH2 0x1299 DUP10 DUP3 DUP11 ADD PUSH2 0x122A JUMP JUMPDEST SWAP4 POP POP PUSH2 0x100 DUP8 ADD CALLDATALOAD PUSH8 0xFFFFFFFFFFFFFFFF DUP2 GT ISZERO PUSH2 0x12BB JUMPI PUSH2 0x12BA PUSH2 0xBAE JUMP JUMPDEST JUMPDEST PUSH2 0x12C7 DUP10 DUP3 DUP11 ADD PUSH2 0xC58 JUMP JUMPDEST SWAP3 POP SWAP3 POP POP SWAP3 SWAP6 POP SWAP3 SWAP6 POP SWAP3 SWAP6 JUMP JUMPDEST PUSH0 DUP1 PUSH0 DUP1 PUSH0 DUP1 PUSH2 0x160 DUP8 DUP10 SUB SLT ISZERO PUSH2 0x12F1 JUMPI PUSH2 0x12F0 PUSH2 0xBAA JUMP JUMPDEST JUMPDEST PUSH0 PUSH2 0x12FE DUP10 DUP3 DUP11 ADD PUSH2 0xBF8 JUMP JUMPDEST SWAP7 POP POP PUSH1 0x20 PUSH2 0x130F DUP10 DUP3 DUP11 ADD PUSH2 0xC10 JUMP JUMPDEST SWAP6 POP POP PUSH1 0xC0 PUSH2 0x1320 DUP10 DUP3 DUP11 ADD PUSH2 0xF22 JUMP JUMPDEST SWAP5 POP POP PUSH2 0x120 PUSH2 0x1332 DUP10 DUP3 DUP11 ADD PUSH2 0x104A JUMP JUMPDEST SWAP4 POP POP PUSH2 0x140 DUP8 ADD CALLDATALOAD PUSH8 0xFFFFFFFFFFFFFFFF DUP2 GT ISZERO PUSH2 0x1354 JUMPI PUSH2 0x1353 PUSH2 0xBAE JUMP JUMPDEST JUMPDEST PUSH2 0x1360 DUP10 DUP3 DUP11 ADD PUSH2 0xC58 JUMP JUMPDEST SWAP3 POP SWAP3 POP POP SWAP3 SWAP6 POP SWAP3 SWAP6 POP SWAP3 SWAP6 JUMP JUMPDEST PUSH0 DUP2 PUSH1 0xF SIGNEXTEND SWAP1 POP SWAP2 SWAP1 POP JUMP JUMPDEST PUSH2 0x1384 DUP2 PUSH2 0x136F JUMP JUMPDEST DUP3 MSTORE POP POP JUMP JUMPDEST PUSH0 PUSH1 0x40 DUP3 ADD SWAP1 POP PUSH2 0x139D PUSH0 DUP4 ADD DUP6 PUSH2 0xD5E JUMP JUMPDEST PUSH2 0x13AA PUSH1 0x20 DUP4 ADD DUP5 PUSH2 0x137B JUMP JUMPDEST SWAP4 SWAP3 POP POP POP JUMP JUMPDEST PUSH0 DUP2 SWAP1 POP SWAP2 SWAP1 POP JUMP JUMPDEST PUSH2 0x13C3 DUP2 PUSH2 0x13B1 JUMP JUMPDEST DUP2 EQ PUSH2 0x13CD JUMPI PUSH0 DUP1 REVERT JUMPDEST POP JUMP JUMPDEST PUSH0 DUP2 CALLDATALOAD SWAP1 POP PUSH2 0x13DE DUP2 PUSH2 0x13BA JUMP JUMPDEST SWAP3 SWAP2 POP POP JUMP JUMPDEST PUSH0 DUP1 PUSH0 DUP1 PUSH0 DUP1 PUSH2 0x120 DUP8 DUP10 SUB SLT ISZERO PUSH2 0x13FF JUMPI PUSH2 0x13FE PUSH2 0xBAA JUMP JUMPDEST JUMPDEST PUSH0 PUSH2 0x140C DUP10 DUP3 DUP11 ADD PUSH2 0xBF8 JUMP JUMPDEST SWAP7 POP POP PUSH1 0x20 PUSH2 0x141D DUP10 DUP3 DUP11 ADD PUSH2 0xC10 JUMP JUMPDEST SWAP6 POP POP PUSH1 0xC0 PUSH2 0x142E DUP10 DUP3 DUP11 ADD PUSH2 0x13D0 JUMP JUMPDEST SWAP5 POP POP PUSH1 0xE0 PUSH2 0x143F DUP10 DUP3 DUP11 ADD PUSH2 0x13D0 JUMP JUMPDEST SWAP4 POP POP PUSH2 0x100 DUP8 ADD CALLDATALOAD PUSH8 0xFFFFFFFFFFFFFFFF DUP2 GT ISZERO PUSH2 0x1461 JUMPI PUSH2 0x1460 PUSH2 0xBAE JUMP JUMPDEST JUMPDEST PUSH2 0x146D DUP10 DUP3 DUP11 ADD PUSH2 0xC58 JUMP JUMPDEST SWAP3 POP SWAP3 POP POP SWAP3 SWAP6 POP SWAP3 SWAP6 POP SWAP3 SWAP6 JUMP JUMPDEST PUSH0 DUP2 ISZERO ISZERO SWAP1 POP SWAP2 SWAP1 POP JUMP JUMPDEST PUSH2 0x1490 DUP2 PUSH2 0x147C JUMP JUMPDEST DUP3 MSTORE POP POP JUMP JUMPDEST PUSH2 0x1C0 DUP3 ADD PUSH0 DUP3 ADD MLOAD PUSH2 0x14AB PUSH0 DUP6 ADD DUP3 PUSH2 0x1487 JUMP JUMPDEST POP PUSH1 0x20 DUP3 ADD MLOAD PUSH2 0x14BE PUSH1 0x20 DUP6 ADD DUP3 PUSH2 0x1487 JUMP JUMPDEST POP PUSH1 0x40 DUP3 ADD MLOAD PUSH2 0x14D1 PUSH1 0x40 DUP6 ADD DUP3 PUSH2 0x1487 JUMP JUMPDEST POP PUSH1 0x60 DUP3 ADD MLOAD PUSH2 0x14E4 PUSH1 0x60 DUP6 ADD DUP3 PUSH2 0x1487 JUMP JUMPDEST POP PUSH1 0x80 DUP3 ADD MLOAD PUSH2 0x14F7 PUSH1 0x80 DUP6 ADD DUP3 PUSH2 0x1487 JUMP JUMPDEST POP PUSH1 0xA0 DUP3 ADD MLOAD PUSH2 0x150A PUSH1 0xA0 DUP6 ADD DUP3 PUSH2 0x1487 JUMP JUMPDEST POP PUSH1 0xC0 DUP3 ADD MLOAD PUSH2 0x151D PUSH1 0xC0 DUP6 ADD DUP3 PUSH2 0x1487 JUMP JUMPDEST POP PUSH1 0xE0 DUP3 ADD MLOAD PUSH2 0x1530 PUSH1 0xE0 DUP6 ADD DUP3 PUSH2 0x1487 JUMP JUMPDEST POP PUSH2 0x100 DUP3 ADD MLOAD PUSH2 0x1545 PUSH2 0x100 DUP6 ADD DUP3 PUSH2 0x1487 JUMP JUMPDEST POP PUSH2 0x120 DUP3 ADD MLOAD PUSH2 0x155A PUSH2 0x120 DUP6 ADD DUP3 PUSH2 0x1487 JUMP JUMPDEST POP PUSH2 0x140 DUP3 ADD MLOAD PUSH2 0x156F PUSH2 0x140 DUP6 ADD DUP3 PUSH2 0x1487 JUMP JUMPDEST POP PUSH2 0x160 DUP3 ADD MLOAD PUSH2 0x1584 PUSH2 0x160 DUP6 ADD DUP3 PUSH2 0x1487 JUMP JUMPDEST POP PUSH2 0x180 DUP3 ADD MLOAD PUSH2 0x1599 PUSH2 0x180 DUP6 ADD DUP3 PUSH2 0x1487 JUMP JUMPDEST POP PUSH2 0x1A0 DUP3 ADD MLOAD PUSH2 0x15AE PUSH2 0x1A0 DUP6 ADD DUP3 PUSH2 0x1487 JUMP JUMPDEST POP POP POP POP JUMP JUMPDEST PUSH0 PUSH2 0x1C0 DUP3 ADD SWAP1 POP PUSH2 0x15C8 PUSH0 DUP4 ADD DUP5 PUSH2 0x1496 JUMP JUMPDEST SWAP3 SWAP2 POP POP JUMP JUMPDEST PUSH0 PUSH13 0xFFFFFFFFFFFFFFFFFFFFFFFFFF DUP3 AND SWAP1 POP SWAP2 SWAP1 POP JUMP JUMPDEST PUSH2 0x15EF DUP2 PUSH2 0x15CE JUMP JUMPDEST DUP3 MSTORE POP POP JUMP JUMPDEST PUSH0 PUSH1 0x20 DUP3 ADD SWAP1 POP PUSH2 0x1608 PUSH0 DUP4 ADD DUP5 PUSH2 0x15E6 JUMP JUMPDEST SWAP3 SWAP2 POP POP JUMP JUMPDEST PUSH2 0x1617 DUP2 PUSH2 0xE35 JUMP JUMPDEST DUP2 EQ PUSH2 0x1621 JUMPI PUSH0 DUP1 REVERT JUMPDEST POP JUMP JUMPDEST PUSH0 DUP2 CALLDATALOAD SWAP1 POP PUSH2 0x1632 DUP2 PUSH2 0x160E JUMP JUMPDEST SWAP3 SWAP2 POP POP JUMP JUMPDEST PUSH0 PUSH1 0x20 DUP3 DUP5 SUB SLT ISZERO PUSH2 0x164D JUMPI PUSH2 0x164C PUSH2 0xBAA JUMP JUMPDEST JUMPDEST PUSH0 PUSH2 0x165A DUP5 DUP3 DUP6 ADD PUSH2 0x1624 JUMP JUMPDEST SWAP2 POP POP SWAP3 SWAP2 POP POP JUMP JUMPDEST PUSH32 0x4E487B7100000000000000000000000000000000000000000000000000000000 PUSH0 MSTORE PUSH1 0x11 PUSH1 0x4 MSTORE PUSH1 0x24 PUSH0 REVERT JUMPDEST PUSH0 PUSH2 0x169A DUP3 PUSH2 0xE6B JUMP JUMPDEST SWAP2 POP PUSH2 0x16A5 DUP4 PUSH2 0xE6B JUMP JUMPDEST SWAP3 POP DUP3 DUP3 MUL PUSH2 0x16B3 DUP2 PUSH2 0xE6B JUMP JUMPDEST SWAP2 POP DUP1 DUP3 EQ PUSH2 0x16C5 JUMPI PUSH2 0x16C4 PUSH2 0x1663 JUMP JUMPDEST JUMPDEST POP SWAP3 SWAP2 POP POP JUMP JUMPDEST PUSH32 0x4E487B7100000000000000000000000000000000000000000000000000000000 PUSH0 MSTORE PUSH1 0x12 PUSH1 0x4 MSTORE PUSH1 0x24 PUSH0 REVERT JUMPDEST PUSH0 PUSH2 0x1703 DUP3 PUSH2 0xE6B JUMP JUMPDEST SWAP2 POP PUSH2 0x170E DUP4 PUSH2 0xE6B JUMP JUMPDEST SWAP3 POP DUP3 PUSH2 0x171E JUMPI PUSH2 0x171D PUSH2 0x16CC JUMP JUMPDEST JUMPDEST DUP3 DUP3 DIV SWAP1 POP SWAP3 SWAP2 POP POP JUMP JUMPDEST PUSH0 PUSH2 0x1733 DUP3 PUSH2 0xE35 JUMP JUMPDEST SWAP2 POP PUSH2 0x173E DUP4 PUSH2 0xE35 JUMP JUMPDEST SWAP3 POP DUP3 PUSH2 0x174E JUMPI PUSH2 0x174D PUSH2 0x16CC JUMP JUMPDEST JUMPDEST DUP3 DUP3 DIV SWAP1 POP SWAP3 SWAP2 POP POP JUMP JUMPDEST PUSH0 PUSH2 0x1763 DUP3 PUSH2 0xE35 JUMP JUMPDEST SWAP2 POP PUSH2 0x176E DUP4 PUSH2 0xE35 JUMP JUMPDEST SWAP3 POP DUP3 DUP3 MUL PUSH2 0x177C DUP2 PUSH2 0xE35 JUMP JUMPDEST SWAP2 POP DUP1 DUP3 EQ PUSH2 0x178E JUMPI PUSH2 0x178D PUSH2 0x1663 JUMP JUMPDEST JUMPDEST POP SWAP3 SWAP2 POP POP JUMP JUMPDEST PUSH0 DUP2 SWAP1 POP SWAP3 SWAP2 POP POP JUMP JUMPDEST DUP3 DUP2 DUP4 CALLDATACOPY PUSH0 DUP4 DUP4 ADD MSTORE POP POP POP JUMP JUMPDEST PUSH0 PUSH2 0x17B8 DUP4 DUP6 PUSH2 0x1795 JUMP JUMPDEST SWAP4 POP PUSH2 0x17C5 DUP4 DUP6 DUP5 PUSH2 0x179F JUMP JUMPDEST DUP3 DUP5 ADD SWAP1 POP SWAP4 SWAP3 POP POP POP JUMP JUMPDEST PUSH0 PUSH2 0x17DD DUP3 DUP5 DUP7 PUSH2 0x17AD JUMP JUMPDEST SWAP2 POP DUP2 SWAP1 POP SWAP4 SWAP3 POP POP POP JUMP JUMPDEST PUSH0 PUSH2 0x17F3 DUP3 PUSH2 0x15CE JUMP JUMPDEST SWAP2 POP PUSH2 0x17FE DUP4 PUSH2 0x15CE JUMP JUMPDEST SWAP3 POP DUP3 DUP3 ADD SWAP1 POP PUSH13 0xFFFFFFFFFFFFFFFFFFFFFFFFFF DUP2 GT ISZERO PUSH2 0x1823 JUMPI PUSH2 0x1822 PUSH2 0x1663 JUMP JUMPDEST JUMPDEST SWAP3 SWAP2 POP POP JUMP JUMPDEST PUSH0 PUSH2 0x1833 DUP3 PUSH2 0xE6B JUMP JUMPDEST SWAP2 POP PUSH2 0x183E DUP4 PUSH2 0xE6B JUMP JUMPDEST SWAP3 POP DUP3 DUP3 ADD SWAP1 POP PUSH16 0xFFFFFFFFFFFFFFFFFFFFFFFFFFFFFFFF DUP2 GT ISZERO PUSH2 0x1866 JUMPI PUSH2 0x1865 PUSH2 0x1663 JUMP JUMPDEST JUMPDEST SWAP3 SWAP2 POP POP JUMP JUMPDEST PUSH0 PUSH2 0x1876 DUP3 PUSH2 0x15CE JUMP JUMPDEST SWAP2 POP PUSH13 0xFFFFFFFFFFFFFFFFFFFFFFFFFF DUP3 SUB PUSH2 0x1895 JUMPI PUSH2 0x1894 PUSH2 0x1663 JUMP JUMPDEST JUMPDEST PUSH1 0x1 DUP3 ADD SWAP1 POP SWAP2 SWAP1 POP JUMP INVALID LOG2 PUSH5 0x6970667358 0x22 SLT KECCAK256 0xE7 PUSH22 0x52E0AECE215F091A5F10D3E9E24AB6B28A67F1A869D3 MOD 0x26 0xCF 0x1E 0x25 SWAP11 0xE CHAINID PUSH5 0x736F6C6343 STOP ADDMOD BYTE STOP CALLER "
		},
		"gasEstimates": {
			"creation": {
				"codeDepositCost": "1271600",
				"executionCost": "infinite",
				"totalCost": "infinite"
			},
			"external": {
				"BASE_FEE()": "421",
				"afterAddLiquidity(address,(address,address,uint24,int24,address),(int24,int24,int256,bytes32),int256,bytes)": "1185",
				"afterDonate(address,(address,address,uint24,int24,address),uint256,uint256,bytes)": "infinite",
				"afterInitialize(address,(address,address,uint24,int24,address),uint160,int24,bytes)": "infinite",
				"afterRemoveLiquidity(address,(address,address,uint24,int24,address),(int24,int24,int256,bytes32),int256,bytes)": "1119",
				"afterSwap(address,(address,address,uint24,int24,address),(bool,int256,uint160),int256,bytes)": "infinite",
				"beforeAddLiquidity(address,(address,address,uint24,int24,address),(int24,int24,int256,bytes32),bytes)": "973",
				"beforeDonate(address,(address,address,uint24,int24,address),uint256,uint256,bytes)": "infinite",
				"beforeInitialize(address,(address,address,uint24,int24,address),uint160,bytes)": "infinite",
				"beforeRemoveLiquidity(address,(address,address,uint24,int24,address),(int24,int24,int256,bytes32),bytes)": "951",
				"beforeSwap(address,(address,address,uint24,int24,address),(bool,int256,uint160),bytes)": "infinite",
				"getGasPrice()": "373",
				"getHookPermissions()": "infinite",
				"manager()": "infinite",
				"movingAverageGasPrice()": "2530",
				"movingAverageGasPriceCount()": "2604",
				"unlockCallback(bytes)": "infinite"
			},
			"internal": {
				"getFee()": "infinite",
				"updateMovingAverage()": "infinite"
			}
		},
		"methodIdentifiers": {
			"BASE_FEE()": "3d18651e",
			"afterAddLiquidity(address,(address,address,uint24,int24,address),(int24,int24,int256,bytes32),int256,bytes)": "5a2a8100",
			"afterDonate(address,(address,address,uint24,int24,address),uint256,uint256,bytes)": "e1b4af69",
			"afterInitialize(address,(address,address,uint24,int24,address),uint160,int24,bytes)": "a910f80f",
			"afterRemoveLiquidity(address,(address,address,uint24,int24,address),(int24,int24,int256,bytes32),int256,bytes)": "8db2b652",
			"afterSwap(address,(address,address,uint24,int24,address),(bool,int256,uint160),int256,bytes)": "b47b2fb1",
			"beforeAddLiquidity(address,(address,address,uint24,int24,address),(int24,int24,int256,bytes32),bytes)": "259982e5",
			"beforeDonate(address,(address,address,uint24,int24,address),uint256,uint256,bytes)": "b6a8b0fa",
			"beforeInitialize(address,(address,address,uint24,int24,address),uint160,bytes)": "3440d820",
			"beforeRemoveLiquidity(address,(address,address,uint24,int24,address),(int24,int24,int256,bytes32),bytes)": "21d0ee70",
			"beforeSwap(address,(address,address,uint24,int24,address),(bool,int256,uint160),bytes)": "575e24b4",
			"getGasPrice()": "455259cb",
			"getHookPermissions()": "c4e833ce",
			"manager()": "481c6a75",
			"movingAverageGasPrice()": "9a161daa",
			"movingAverageGasPriceCount()": "cd2c70e8",
			"unlockCallback(bytes)": "91dd7346"
		}
	},
	"abi": [
		{
			"inputs": [
				{
					"internalType": "contract IPoolManager",
					"name": "_poolManager",
					"type": "address"
				}
			],
			"stateMutability": "nonpayable",
			"type": "constructor"
		},
		{
			"inputs": [],
			"name": "HookNotImplemented",
			"type": "error"
		},
		{
			"inputs": [],
			"name": "InvalidPool",
			"type": "error"
		},
		{
			"inputs": [],
			"name": "LockFailure",
			"type": "error"
		},
		{
			"inputs": [],
			"name": "MustUseDynamicFee",
			"type": "error"
		},
		{
			"inputs": [],
			"name": "NotManager",
			"type": "error"
		},
		{
			"inputs": [],
			"name": "NotSelf",
			"type": "error"
		},
		{
			"inputs": [],
			"name": "BASE_FEE",
			"outputs": [
				{
					"internalType": "uint24",
					"name": "",
					"type": "uint24"
				}
			],
			"stateMutability": "view",
			"type": "function"
		},
		{
			"inputs": [
				{
					"internalType": "address",
					"name": "",
					"type": "address"
				},
				{
					"components": [
						{
							"internalType": "Currency",
							"name": "currency0",
							"type": "address"
						},
						{
							"internalType": "Currency",
							"name": "currency1",
							"type": "address"
						},
						{
							"internalType": "uint24",
							"name": "fee",
							"type": "uint24"
						},
						{
							"internalType": "int24",
							"name": "tickSpacing",
							"type": "int24"
						},
						{
							"internalType": "contract IHooks",
							"name": "hooks",
							"type": "address"
						}
					],
					"internalType": "struct PoolKey",
					"name": "",
					"type": "tuple"
				},
				{
					"components": [
						{
							"internalType": "int24",
							"name": "tickLower",
							"type": "int24"
						},
						{
							"internalType": "int24",
							"name": "tickUpper",
							"type": "int24"
						},
						{
							"internalType": "int256",
							"name": "liquidityDelta",
							"type": "int256"
						},
						{
							"internalType": "bytes32",
							"name": "salt",
							"type": "bytes32"
						}
					],
					"internalType": "struct IPoolManager.ModifyLiquidityParams",
					"name": "",
					"type": "tuple"
				},
				{
					"internalType": "BalanceDelta",
					"name": "",
					"type": "int256"
				},
				{
					"internalType": "bytes",
					"name": "",
					"type": "bytes"
				}
			],
			"name": "afterAddLiquidity",
			"outputs": [
				{
					"internalType": "bytes4",
					"name": "",
					"type": "bytes4"
				},
				{
					"internalType": "BalanceDelta",
					"name": "",
					"type": "int256"
				}
			],
			"stateMutability": "nonpayable",
			"type": "function"
		},
		{
			"inputs": [
				{
					"internalType": "address",
					"name": "",
					"type": "address"
				},
				{
					"components": [
						{
							"internalType": "Currency",
							"name": "currency0",
							"type": "address"
						},
						{
							"internalType": "Currency",
							"name": "currency1",
							"type": "address"
						},
						{
							"internalType": "uint24",
							"name": "fee",
							"type": "uint24"
						},
						{
							"internalType": "int24",
							"name": "tickSpacing",
							"type": "int24"
						},
						{
							"internalType": "contract IHooks",
							"name": "hooks",
							"type": "address"
						}
					],
					"internalType": "struct PoolKey",
					"name": "",
					"type": "tuple"
				},
				{
					"internalType": "uint256",
					"name": "",
					"type": "uint256"
				},
				{
					"internalType": "uint256",
					"name": "",
					"type": "uint256"
				},
				{
					"internalType": "bytes",
					"name": "",
					"type": "bytes"
				}
			],
			"name": "afterDonate",
			"outputs": [
				{
					"internalType": "bytes4",
					"name": "",
					"type": "bytes4"
				}
			],
			"stateMutability": "nonpayable",
			"type": "function"
		},
		{
			"inputs": [
				{
					"internalType": "address",
					"name": "",
					"type": "address"
				},
				{
					"components": [
						{
							"internalType": "Currency",
							"name": "currency0",
							"type": "address"
						},
						{
							"internalType": "Currency",
							"name": "currency1",
							"type": "address"
						},
						{
							"internalType": "uint24",
							"name": "fee",
							"type": "uint24"
						},
						{
							"internalType": "int24",
							"name": "tickSpacing",
							"type": "int24"
						},
						{
							"internalType": "contract IHooks",
							"name": "hooks",
							"type": "address"
						}
					],
					"internalType": "struct PoolKey",
					"name": "",
					"type": "tuple"
				},
				{
					"internalType": "uint160",
					"name": "",
					"type": "uint160"
				},
				{
					"internalType": "int24",
					"name": "",
					"type": "int24"
				},
				{
					"internalType": "bytes",
					"name": "",
					"type": "bytes"
				}
			],
			"name": "afterInitialize",
			"outputs": [
				{
					"internalType": "bytes4",
					"name": "",
					"type": "bytes4"
				}
			],
			"stateMutability": "nonpayable",
			"type": "function"
		},
		{
			"inputs": [
				{
					"internalType": "address",
					"name": "",
					"type": "address"
				},
				{
					"components": [
						{
							"internalType": "Currency",
							"name": "currency0",
							"type": "address"
						},
						{
							"internalType": "Currency",
							"name": "currency1",
							"type": "address"
						},
						{
							"internalType": "uint24",
							"name": "fee",
							"type": "uint24"
						},
						{
							"internalType": "int24",
							"name": "tickSpacing",
							"type": "int24"
						},
						{
							"internalType": "contract IHooks",
							"name": "hooks",
							"type": "address"
						}
					],
					"internalType": "struct PoolKey",
					"name": "",
					"type": "tuple"
				},
				{
					"components": [
						{
							"internalType": "int24",
							"name": "tickLower",
							"type": "int24"
						},
						{
							"internalType": "int24",
							"name": "tickUpper",
							"type": "int24"
						},
						{
							"internalType": "int256",
							"name": "liquidityDelta",
							"type": "int256"
						},
						{
							"internalType": "bytes32",
							"name": "salt",
							"type": "bytes32"
						}
					],
					"internalType": "struct IPoolManager.ModifyLiquidityParams",
					"name": "",
					"type": "tuple"
				},
				{
					"internalType": "BalanceDelta",
					"name": "",
					"type": "int256"
				},
				{
					"internalType": "bytes",
					"name": "",
					"type": "bytes"
				}
			],
			"name": "afterRemoveLiquidity",
			"outputs": [
				{
					"internalType": "bytes4",
					"name": "",
					"type": "bytes4"
				},
				{
					"internalType": "BalanceDelta",
					"name": "",
					"type": "int256"
				}
			],
			"stateMutability": "nonpayable",
			"type": "function"
		},
		{
			"inputs": [
				{
					"internalType": "address",
					"name": "",
					"type": "address"
				},
				{
					"components": [
						{
							"internalType": "Currency",
							"name": "currency0",
							"type": "address"
						},
						{
							"internalType": "Currency",
							"name": "currency1",
							"type": "address"
						},
						{
							"internalType": "uint24",
							"name": "fee",
							"type": "uint24"
						},
						{
							"internalType": "int24",
							"name": "tickSpacing",
							"type": "int24"
						},
						{
							"internalType": "contract IHooks",
							"name": "hooks",
							"type": "address"
						}
					],
					"internalType": "struct PoolKey",
					"name": "",
					"type": "tuple"
				},
				{
					"components": [
						{
							"internalType": "bool",
							"name": "zeroForOne",
							"type": "bool"
						},
						{
							"internalType": "int256",
							"name": "amountSpecified",
							"type": "int256"
						},
						{
							"internalType": "uint160",
							"name": "sqrtPriceLimitX96",
							"type": "uint160"
						}
					],
					"internalType": "struct IPoolManager.SwapParams",
					"name": "",
					"type": "tuple"
				},
				{
					"internalType": "BalanceDelta",
					"name": "",
					"type": "int256"
				},
				{
					"internalType": "bytes",
					"name": "",
					"type": "bytes"
				}
			],
			"name": "afterSwap",
			"outputs": [
				{
					"internalType": "bytes4",
					"name": "",
					"type": "bytes4"
				},
				{
					"internalType": "int128",
					"name": "",
					"type": "int128"
				}
			],
			"stateMutability": "nonpayable",
			"type": "function"
		},
		{
			"inputs": [
				{
					"internalType": "address",
					"name": "",
					"type": "address"
				},
				{
					"components": [
						{
							"internalType": "Currency",
							"name": "currency0",
							"type": "address"
						},
						{
							"internalType": "Currency",
							"name": "currency1",
							"type": "address"
						},
						{
							"internalType": "uint24",
							"name": "fee",
							"type": "uint24"
						},
						{
							"internalType": "int24",
							"name": "tickSpacing",
							"type": "int24"
						},
						{
							"internalType": "contract IHooks",
							"name": "hooks",
							"type": "address"
						}
					],
					"internalType": "struct PoolKey",
					"name": "",
					"type": "tuple"
				},
				{
					"components": [
						{
							"internalType": "int24",
							"name": "tickLower",
							"type": "int24"
						},
						{
							"internalType": "int24",
							"name": "tickUpper",
							"type": "int24"
						},
						{
							"internalType": "int256",
							"name": "liquidityDelta",
							"type": "int256"
						},
						{
							"internalType": "bytes32",
							"name": "salt",
							"type": "bytes32"
						}
					],
					"internalType": "struct IPoolManager.ModifyLiquidityParams",
					"name": "",
					"type": "tuple"
				},
				{
					"internalType": "bytes",
					"name": "",
					"type": "bytes"
				}
			],
			"name": "beforeAddLiquidity",
			"outputs": [
				{
					"internalType": "bytes4",
					"name": "",
					"type": "bytes4"
				}
			],
			"stateMutability": "nonpayable",
			"type": "function"
		},
		{
			"inputs": [
				{
					"internalType": "address",
					"name": "",
					"type": "address"
				},
				{
					"components": [
						{
							"internalType": "Currency",
							"name": "currency0",
							"type": "address"
						},
						{
							"internalType": "Currency",
							"name": "currency1",
							"type": "address"
						},
						{
							"internalType": "uint24",
							"name": "fee",
							"type": "uint24"
						},
						{
							"internalType": "int24",
							"name": "tickSpacing",
							"type": "int24"
						},
						{
							"internalType": "contract IHooks",
							"name": "hooks",
							"type": "address"
						}
					],
					"internalType": "struct PoolKey",
					"name": "",
					"type": "tuple"
				},
				{
					"internalType": "uint256",
					"name": "",
					"type": "uint256"
				},
				{
					"internalType": "uint256",
					"name": "",
					"type": "uint256"
				},
				{
					"internalType": "bytes",
					"name": "",
					"type": "bytes"
				}
			],
			"name": "beforeDonate",
			"outputs": [
				{
					"internalType": "bytes4",
					"name": "",
					"type": "bytes4"
				}
			],
			"stateMutability": "nonpayable",
			"type": "function"
		},
		{
			"inputs": [
				{
					"internalType": "address",
					"name": "",
					"type": "address"
				},
				{
					"components": [
						{
							"internalType": "Currency",
							"name": "currency0",
							"type": "address"
						},
						{
							"internalType": "Currency",
							"name": "currency1",
							"type": "address"
						},
						{
							"internalType": "uint24",
							"name": "fee",
							"type": "uint24"
						},
						{
							"internalType": "int24",
							"name": "tickSpacing",
							"type": "int24"
						},
						{
							"internalType": "contract IHooks",
							"name": "hooks",
							"type": "address"
						}
					],
					"internalType": "struct PoolKey",
					"name": "key",
					"type": "tuple"
				},
				{
					"internalType": "uint160",
					"name": "",
					"type": "uint160"
				},
				{
					"internalType": "bytes",
					"name": "",
					"type": "bytes"
				}
			],
			"name": "beforeInitialize",
			"outputs": [
				{
					"internalType": "bytes4",
					"name": "",
					"type": "bytes4"
				}
			],
			"stateMutability": "pure",
			"type": "function"
		},
		{
			"inputs": [
				{
					"internalType": "address",
					"name": "",
					"type": "address"
				},
				{
					"components": [
						{
							"internalType": "Currency",
							"name": "currency0",
							"type": "address"
						},
						{
							"internalType": "Currency",
							"name": "currency1",
							"type": "address"
						},
						{
							"internalType": "uint24",
							"name": "fee",
							"type": "uint24"
						},
						{
							"internalType": "int24",
							"name": "tickSpacing",
							"type": "int24"
						},
						{
							"internalType": "contract IHooks",
							"name": "hooks",
							"type": "address"
						}
					],
					"internalType": "struct PoolKey",
					"name": "",
					"type": "tuple"
				},
				{
					"components": [
						{
							"internalType": "int24",
							"name": "tickLower",
							"type": "int24"
						},
						{
							"internalType": "int24",
							"name": "tickUpper",
							"type": "int24"
						},
						{
							"internalType": "int256",
							"name": "liquidityDelta",
							"type": "int256"
						},
						{
							"internalType": "bytes32",
							"name": "salt",
							"type": "bytes32"
						}
					],
					"internalType": "struct IPoolManager.ModifyLiquidityParams",
					"name": "",
					"type": "tuple"
				},
				{
					"internalType": "bytes",
					"name": "",
					"type": "bytes"
				}
			],
			"name": "beforeRemoveLiquidity",
			"outputs": [
				{
					"internalType": "bytes4",
					"name": "",
					"type": "bytes4"
				}
			],
			"stateMutability": "nonpayable",
			"type": "function"
		},
		{
			"inputs": [
				{
					"internalType": "address",
					"name": "",
					"type": "address"
				},
				{
					"components": [
						{
							"internalType": "Currency",
							"name": "currency0",
							"type": "address"
						},
						{
							"internalType": "Currency",
							"name": "currency1",
							"type": "address"
						},
						{
							"internalType": "uint24",
							"name": "fee",
							"type": "uint24"
						},
						{
							"internalType": "int24",
							"name": "tickSpacing",
							"type": "int24"
						},
						{
							"internalType": "contract IHooks",
							"name": "hooks",
							"type": "address"
						}
					],
					"internalType": "struct PoolKey",
					"name": "",
					"type": "tuple"
				},
				{
					"components": [
						{
							"internalType": "bool",
							"name": "zeroForOne",
							"type": "bool"
						},
						{
							"internalType": "int256",
							"name": "amountSpecified",
							"type": "int256"
						},
						{
							"internalType": "uint160",
							"name": "sqrtPriceLimitX96",
							"type": "uint160"
						}
					],
					"internalType": "struct IPoolManager.SwapParams",
					"name": "",
					"type": "tuple"
				},
				{
					"internalType": "bytes",
					"name": "",
					"type": "bytes"
				}
			],
			"name": "beforeSwap",
			"outputs": [
				{
					"internalType": "bytes4",
					"name": "",
					"type": "bytes4"
				},
				{
					"internalType": "BeforeSwapDelta",
					"name": "",
					"type": "int256"
				},
				{
					"internalType": "uint24",
					"name": "",
					"type": "uint24"
				}
			],
			"stateMutability": "view",
			"type": "function"
		},
		{
			"inputs": [],
			"name": "getGasPrice",
			"outputs": [
				{
					"internalType": "uint128",
					"name": "",
					"type": "uint128"
				}
			],
			"stateMutability": "view",
			"type": "function"
		},
		{
			"inputs": [],
			"name": "getHookPermissions",
			"outputs": [
				{
					"components": [
						{
							"internalType": "bool",
							"name": "beforeInitialize",
							"type": "bool"
						},
						{
							"internalType": "bool",
							"name": "afterInitialize",
							"type": "bool"
						},
						{
							"internalType": "bool",
							"name": "beforeAddLiquidity",
							"type": "bool"
						},
						{
							"internalType": "bool",
							"name": "afterAddLiquidity",
							"type": "bool"
						},
						{
							"internalType": "bool",
							"name": "beforeRemoveLiquidity",
							"type": "bool"
						},
						{
							"internalType": "bool",
							"name": "afterRemoveLiquidity",
							"type": "bool"
						},
						{
							"internalType": "bool",
							"name": "beforeSwap",
							"type": "bool"
						},
						{
							"internalType": "bool",
							"name": "afterSwap",
							"type": "bool"
						},
						{
							"internalType": "bool",
							"name": "beforeDonate",
							"type": "bool"
						},
						{
							"internalType": "bool",
							"name": "afterDonate",
							"type": "bool"
						},
						{
							"internalType": "bool",
							"name": "beforeSwapReturnDelta",
							"type": "bool"
						},
						{
							"internalType": "bool",
							"name": "afterSwapReturnDelta",
							"type": "bool"
						},
						{
							"internalType": "bool",
							"name": "afterAddLiquidityReturnDelta",
							"type": "bool"
						},
						{
							"internalType": "bool",
							"name": "afterRemoveLiquidityReturnDelta",
							"type": "bool"
						}
					],
					"internalType": "struct Hooks.Permissions",
					"name": "",
					"type": "tuple"
				}
			],
			"stateMutability": "pure",
			"type": "function"
		},
		{
			"inputs": [],
			"name": "manager",
			"outputs": [
				{
					"internalType": "contract IPoolManager",
					"name": "",
					"type": "address"
				}
			],
			"stateMutability": "view",
			"type": "function"
		},
		{
			"inputs": [],
			"name": "movingAverageGasPrice",
			"outputs": [
				{
					"internalType": "uint128",
					"name": "",
					"type": "uint128"
				}
			],
			"stateMutability": "view",
			"type": "function"
		},
		{
			"inputs": [],
			"name": "movingAverageGasPriceCount",
			"outputs": [
				{
					"internalType": "uint104",
					"name": "",
					"type": "uint104"
				}
			],
			"stateMutability": "view",
			"type": "function"
		},
		{
			"inputs": [
				{
					"internalType": "bytes",
					"name": "data",
					"type": "bytes"
				}
			],
			"name": "unlockCallback",
			"outputs": [
				{
					"internalType": "bytes",
					"name": "",
					"type": "bytes"
				}
			],
			"stateMutability": "nonpayable",
			"type": "function"
		}
	]
}